{
	"contracts/hello.sol": {
		"MyFirstContract": {
			"abi": [
				{
					"inputs": [],
					"name": "Name",
					"outputs": [
						{
							"internalType": "bool",
							"name": "",
							"type": "bool"
						}
					],
					"stateMutability": "view",
					"type": "function"
				},
				{
					"inputs": [],
					"name": "addere",
					"outputs": [
						{
							"internalType": "address",
							"name": "",
							"type": "address"
						}
					],
					"stateMutability": "view",
					"type": "function"
				},
				{
					"inputs": [],
					"name": "age",
					"outputs": [
						{
							"internalType": "bool",
							"name": "",
							"type": "bool"
						}
					],
					"stateMutability": "view",
					"type": "function"
				},
				{
					"inputs": [],
					"name": "bytes1v",
					"outputs": [
						{
							"internalType": "bytes",
							"name": "",
							"type": "bytes"
						}
					],
					"stateMutability": "view",
					"type": "function"
				},
				{
					"inputs": [],
					"name": "bytes1v2",
					"outputs": [
						{
							"internalType": "bytes",
							"name": "",
							"type": "bytes"
						}
					],
					"stateMutability": "view",
					"type": "function"
				},
				{
					"inputs": [],
					"name": "currentState",
					"outputs": [
						{
							"internalType": "enum MyFirstContract.State",
							"name": "",
							"type": "uint8"
						}
					],
					"stateMutability": "view",
					"type": "function"
				},
				{
					"inputs": [],
					"name": "hbbbb",
					"outputs": [
						{
							"internalType": "address",
							"name": "",
							"type": "address"
						}
					],
					"stateMutability": "view",
					"type": "function"
				},
				{
					"inputs": [],
					"name": "num1",
					"outputs": [
						{
							"internalType": "uint256",
							"name": "",
							"type": "uint256"
						}
					],
					"stateMutability": "view",
					"type": "function"
				},
				{
					"inputs": [],
					"name": "num2",
					"outputs": [
						{
							"internalType": "uint256",
							"name": "",
							"type": "uint256"
						}
					],
					"stateMutability": "view",
					"type": "function"
				},
				{
					"inputs": [],
					"name": "num3",
					"outputs": [
						{
							"internalType": "uint256",
							"name": "",
							"type": "uint256"
						}
					],
					"stateMutability": "view",
					"type": "function"
				},
				{
					"inputs": [],
					"name": "num4",
					"outputs": [
						{
							"internalType": "int256",
							"name": "",
							"type": "int256"
						}
					],
					"stateMutability": "view",
					"type": "function"
				},
				{
					"inputs": [],
					"name": "num5",
					"outputs": [
						{
							"internalType": "int256",
							"name": "",
							"type": "int256"
						}
					],
					"stateMutability": "view",
					"type": "function"
				},
				{
					"inputs": [],
					"name": "num6",
					"outputs": [
						{
							"internalType": "int256",
							"name": "",
							"type": "int256"
						}
					],
					"stateMutability": "view",
					"type": "function"
				}
			],
			"devdoc": {
				"kind": "dev",
				"methods": {},
				"version": 1
			},
			"evm": {
				"assembly": "    /* \"contracts/hello.sol\":68:1082  contract MyFirstContract{... */\n  mstore(0x40, 0x80)\n    /* \"contracts/hello.sol\":262:266  true */\n  0x01\n    /* \"contracts/hello.sol\":246:266  bool public age=true */\n  0x00\n  exp(0x0100, 0x01)\n  dup2\n  sload\n  dup2\n  0xff\n  mul\n  not\n  and\n  swap1\n  dup4\n  iszero\n  iszero\n  mul\n  or\n  swap1\n  sstore\n  pop\n    /* \"contracts/hello.sol\":489:494  88999 */\n  0x015ba7\n    /* \"contracts/hello.sol\":472:494  uint public num2=88999 */\n  0x02\n  sstore\n    /* \"contracts/hello.sol\":579:582  990 */\n  0x03de\n    /* \"contracts/hello.sol\":563:582  int public num5=990 */\n  0x05\n  sstore\n    /* \"contracts/hello.sol\":724:766  0x5B38Da6a701c568545dCfcB03FcB875f56beddC4 */\n  0x5b38da6a701c568545dcfcb03fcb875f56beddc4\n    /* \"contracts/hello.sol\":702:766  address public addere=0x5B38Da6a701c568545dCfcB03FcB875f56beddC4 */\n  0x08\n  exp(0x0100, 0x00)\n  dup2\n  sload\n  dup2\n  0xffffffffffffffffffffffffffffffffffffffff\n  mul\n  not\n  and\n  swap1\n  dup4\n  0xffffffffffffffffffffffffffffffffffffffff\n  and\n  mul\n  or\n  swap1\n  sstore\n  pop\n    /* \"contracts/hello.sol\":878:890  State.Active */\n  0x00\n    /* \"contracts/hello.sol\":852:890  State public currentState=State.Active */\n  0x08\n  exp(0x0100, 0x14)\n  dup2\n  sload\n  dup2\n  0xff\n  mul\n  not\n  and\n  swap1\n  dup4\n  0x02\n  dup2\n  gt\n  iszero\n  tag_1\n  jumpi\n  tag_2\n  tag_3\n  jump\t// in\ntag_2:\ntag_1:\n  mul\n  or\n  swap1\n  sstore\n  pop\n    /* \"contracts/hello.sol\":1024:1068  bytes public bytes1v2= hex\"1234567890abcdef\" */\n  mload(0x40)\n  dup1\n  0x40\n  add\n  0x40\n  mstore\n  dup1\n  0x08\n  dup2\n  mstore\n  0x20\n  add\n  0x1234567890abcdef000000000000000000000000000000000000000000000000\n  dup2\n  mstore\n  pop\n  0x0a\n  swap1\n  dup2\n  tag_4\n  swap2\n  swap1\n  tag_5\n  jump\t// in\ntag_4:\n  pop\n    /* \"contracts/hello.sol\":68:1082  contract MyFirstContract{... */\n  callvalue\n  dup1\n  iszero\n  tag_6\n  jumpi\n  0x00\n  dup1\n  revert\ntag_6:\n  pop\n  jump(tag_7)\n    /* \"#utility.yul\":7:187   */\ntag_3:\n    /* \"#utility.yul\":55:132   */\n  0x4e487b7100000000000000000000000000000000000000000000000000000000\n    /* \"#utility.yul\":52:53   */\n  0x00\n    /* \"#utility.yul\":45:133   */\n  mstore\n    /* \"#utility.yul\":152:156   */\n  0x21\n    /* \"#utility.yul\":149:150   */\n  0x04\n    /* \"#utility.yul\":142:157   */\n  mstore\n    /* \"#utility.yul\":176:180   */\n  0x24\n    /* \"#utility.yul\":173:174   */\n  0x00\n    /* \"#utility.yul\":166:181   */\n  revert\n    /* \"#utility.yul\":193:292   */\ntag_8:\n    /* \"#utility.yul\":245:251   */\n  0x00\n    /* \"#utility.yul\":279:284   */\n  dup2\n    /* \"#utility.yul\":273:285   */\n  mload\n    /* \"#utility.yul\":263:285   */\n  swap1\n  pop\n    /* \"#utility.yul\":193:292   */\n  swap2\n  swap1\n  pop\n  jump\t// out\n    /* \"#utility.yul\":298:478   */\ntag_9:\n    /* \"#utility.yul\":346:423   */\n  0x4e487b7100000000000000000000000000000000000000000000000000000000\n    /* \"#utility.yul\":343:344   */\n  0x00\n    /* \"#utility.yul\":336:424   */\n  mstore\n    /* \"#utility.yul\":443:447   */\n  0x41\n    /* \"#utility.yul\":440:441   */\n  0x04\n    /* \"#utility.yul\":433:448   */\n  mstore\n    /* \"#utility.yul\":467:471   */\n  0x24\n    /* \"#utility.yul\":464:465   */\n  0x00\n    /* \"#utility.yul\":457:472   */\n  revert\n    /* \"#utility.yul\":484:664   */\ntag_10:\n    /* \"#utility.yul\":532:609   */\n  0x4e487b7100000000000000000000000000000000000000000000000000000000\n    /* \"#utility.yul\":529:530   */\n  0x00\n    /* \"#utility.yul\":522:610   */\n  mstore\n    /* \"#utility.yul\":629:633   */\n  0x22\n    /* \"#utility.yul\":626:627   */\n  0x04\n    /* \"#utility.yul\":619:634   */\n  mstore\n    /* \"#utility.yul\":653:657   */\n  0x24\n    /* \"#utility.yul\":650:651   */\n  0x00\n    /* \"#utility.yul\":643:658   */\n  revert\n    /* \"#utility.yul\":670:990   */\ntag_11:\n    /* \"#utility.yul\":714:720   */\n  0x00\n    /* \"#utility.yul\":751:752   */\n  0x02\n    /* \"#utility.yul\":745:749   */\n  dup3\n    /* \"#utility.yul\":741:753   */\n  div\n    /* \"#utility.yul\":731:753   */\n  swap1\n  pop\n    /* \"#utility.yul\":798:799   */\n  0x01\n    /* \"#utility.yul\":792:796   */\n  dup3\n    /* \"#utility.yul\":788:800   */\n  and\n    /* \"#utility.yul\":819:837   */\n  dup1\n    /* \"#utility.yul\":809:890   */\n  tag_34\n  jumpi\n    /* \"#utility.yul\":875:879   */\n  0x7f\n    /* \"#utility.yul\":867:873   */\n  dup3\n    /* \"#utility.yul\":863:880   */\n  and\n    /* \"#utility.yul\":853:880   */\n  swap2\n  pop\n    /* \"#utility.yul\":809:890   */\ntag_34:\n    /* \"#utility.yul\":937:939   */\n  0x20\n    /* \"#utility.yul\":929:935   */\n  dup3\n    /* \"#utility.yul\":926:940   */\n  lt\n    /* \"#utility.yul\":906:924   */\n  dup2\n    /* \"#utility.yul\":903:941   */\n  sub\n    /* \"#utility.yul\":900:984   */\n  tag_35\n  jumpi\n    /* \"#utility.yul\":956:974   */\n  tag_36\n  tag_10\n  jump\t// in\ntag_36:\n    /* \"#utility.yul\":900:984   */\ntag_35:\n    /* \"#utility.yul\":721:990   */\n  pop\n    /* \"#utility.yul\":670:990   */\n  swap2\n  swap1\n  pop\n  jump\t// out\n    /* \"#utility.yul\":996:1136   */\ntag_12:\n    /* \"#utility.yul\":1044:1048   */\n  0x00\n    /* \"#utility.yul\":1067:1070   */\n  dup2\n    /* \"#utility.yul\":1059:1070   */\n  swap1\n  pop\n    /* \"#utility.yul\":1090:1093   */\n  dup2\n    /* \"#utility.yul\":1087:1088   */\n  0x00\n    /* \"#utility.yul\":1080:1094   */\n  mstore\n    /* \"#utility.yul\":1124:1128   */\n  0x20\n    /* \"#utility.yul\":1121:1122   */\n  0x00\n    /* \"#utility.yul\":1111:1129   */\n  keccak256\n    /* \"#utility.yul\":1103:1129   */\n  swap1\n  pop\n    /* \"#utility.yul\":996:1136   */\n  swap2\n  swap1\n  pop\n  jump\t// out\n    /* \"#utility.yul\":1142:1235   */\ntag_13:\n    /* \"#utility.yul\":1179:1185   */\n  0x00\n    /* \"#utility.yul\":1226:1228   */\n  0x20\n    /* \"#utility.yul\":1221:1223   */\n  0x1f\n    /* \"#utility.yul\":1214:1219   */\n  dup4\n    /* \"#utility.yul\":1210:1224   */\n  add\n    /* \"#utility.yul\":1206:1229   */\n  div\n    /* \"#utility.yul\":1196:1229   */\n  swap1\n  pop\n    /* \"#utility.yul\":1142:1235   */\n  swap2\n  swap1\n  pop\n  jump\t// out\n    /* \"#utility.yul\":1241:1348   */\ntag_14:\n    /* \"#utility.yul\":1285:1293   */\n  0x00\n    /* \"#utility.yul\":1335:1340   */\n  dup3\n    /* \"#utility.yul\":1329:1333   */\n  dup3\n    /* \"#utility.yul\":1325:1341   */\n  shl\n    /* \"#utility.yul\":1304:1341   */\n  swap1\n  pop\n    /* \"#utility.yul\":1241:1348   */\n  swap3\n  swap2\n  pop\n  pop\n  jump\t// out\n    /* \"#utility.yul\":1354:1747   */\ntag_15:\n    /* \"#utility.yul\":1423:1429   */\n  0x00\n    /* \"#utility.yul\":1473:1474   */\n  0x08\n    /* \"#utility.yul\":1461:1471   */\n  dup4\n    /* \"#utility.yul\":1457:1475   */\n  mul\n    /* \"#utility.yul\":1496:1593   */\n  tag_41\n    /* \"#utility.yul\":1526:1592   */\n  0xffffffffffffffffffffffffffffffffffffffffffffffffffffffffffffffff\n    /* \"#utility.yul\":1515:1524   */\n  dup3\n    /* \"#utility.yul\":1496:1593   */\n  tag_14\n  jump\t// in\ntag_41:\n    /* \"#utility.yul\":1614:1653   */\n  tag_42\n    /* \"#utility.yul\":1644:1652   */\n  dup7\n    /* \"#utility.yul\":1633:1642   */\n  dup4\n    /* \"#utility.yul\":1614:1653   */\n  tag_14\n  jump\t// in\ntag_42:\n    /* \"#utility.yul\":1602:1653   */\n  swap6\n  pop\n    /* \"#utility.yul\":1686:1690   */\n  dup1\n    /* \"#utility.yul\":1682:1691   */\n  not\n    /* \"#utility.yul\":1675:1680   */\n  dup5\n    /* \"#utility.yul\":1671:1692   */\n  and\n    /* \"#utility.yul\":1662:1692   */\n  swap4\n  pop\n    /* \"#utility.yul\":1735:1739   */\n  dup1\n    /* \"#utility.yul\":1725:1733   */\n  dup7\n    /* \"#utility.yul\":1721:1740   */\n  and\n    /* \"#utility.yul\":1714:1719   */\n  dup5\n    /* \"#utility.yul\":1711:1741   */\n  or\n    /* \"#utility.yul\":1701:1741   */\n  swap3\n  pop\n    /* \"#utility.yul\":1430:1747   */\n  pop\n  pop\n    /* \"#utility.yul\":1354:1747   */\n  swap4\n  swap3\n  pop\n  pop\n  pop\n  jump\t// out\n    /* \"#utility.yul\":1753:1830   */\ntag_16:\n    /* \"#utility.yul\":1790:1797   */\n  0x00\n    /* \"#utility.yul\":1819:1824   */\n  dup2\n    /* \"#utility.yul\":1808:1824   */\n  swap1\n  pop\n    /* \"#utility.yul\":1753:1830   */\n  swap2\n  swap1\n  pop\n  jump\t// out\n    /* \"#utility.yul\":1836:1896   */\ntag_17:\n    /* \"#utility.yul\":1864:1867   */\n  0x00\n    /* \"#utility.yul\":1885:1890   */\n  dup2\n    /* \"#utility.yul\":1878:1890   */\n  swap1\n  pop\n    /* \"#utility.yul\":1836:1896   */\n  swap2\n  swap1\n  pop\n  jump\t// out\n    /* \"#utility.yul\":1902:2044   */\ntag_18:\n    /* \"#utility.yul\":1952:1961   */\n  0x00\n    /* \"#utility.yul\":1985:2038   */\n  tag_46\n    /* \"#utility.yul\":2003:2037   */\n  tag_47\n    /* \"#utility.yul\":2012:2036   */\n  tag_48\n    /* \"#utility.yul\":2030:2035   */\n  dup5\n    /* \"#utility.yul\":2012:2036   */\n  tag_16\n  jump\t// in\ntag_48:\n    /* \"#utility.yul\":2003:2037   */\n  tag_17\n  jump\t// in\ntag_47:\n    /* \"#utility.yul\":1985:2038   */\n  tag_16\n  jump\t// in\ntag_46:\n    /* \"#utility.yul\":1972:2038   */\n  swap1\n  pop\n    /* \"#utility.yul\":1902:2044   */\n  swap2\n  swap1\n  pop\n  jump\t// out\n    /* \"#utility.yul\":2050:2125   */\ntag_19:\n    /* \"#utility.yul\":2093:2096   */\n  0x00\n    /* \"#utility.yul\":2114:2119   */\n  dup2\n    /* \"#utility.yul\":2107:2119   */\n  swap1\n  pop\n    /* \"#utility.yul\":2050:2125   */\n  swap2\n  swap1\n  pop\n  jump\t// out\n    /* \"#utility.yul\":2131:2400   */\ntag_20:\n    /* \"#utility.yul\":2241:2280   */\n  tag_51\n    /* \"#utility.yul\":2272:2279   */\n  dup4\n    /* \"#utility.yul\":2241:2280   */\n  tag_18\n  jump\t// in\ntag_51:\n    /* \"#utility.yul\":2302:2393   */\n  tag_52\n    /* \"#utility.yul\":2351:2392   */\n  tag_53\n    /* \"#utility.yul\":2375:2391   */\n  dup3\n    /* \"#utility.yul\":2351:2392   */\n  tag_19\n  jump\t// in\ntag_53:\n    /* \"#utility.yul\":2343:2349   */\n  dup5\n    /* \"#utility.yul\":2336:2340   */\n  dup5\n    /* \"#utility.yul\":2330:2341   */\n  sload\n    /* \"#utility.yul\":2302:2393   */\n  tag_15\n  jump\t// in\ntag_52:\n    /* \"#utility.yul\":2296:2300   */\n  dup3\n    /* \"#utility.yul\":2289:2394   */\n  sstore\n    /* \"#utility.yul\":2207:2400   */\n  pop\n    /* \"#utility.yul\":2131:2400   */\n  pop\n  pop\n  pop\n  jump\t// out\n    /* \"#utility.yul\":2406:2479   */\ntag_21:\n    /* \"#utility.yul\":2451:2454   */\n  0x00\n    /* \"#utility.yul\":2406:2479   */\n  swap1\n  jump\t// out\n    /* \"#utility.yul\":2485:2674   */\ntag_22:\n    /* \"#utility.yul\":2562:2594   */\n  tag_56\n  tag_21\n  jump\t// in\ntag_56:\n    /* \"#utility.yul\":2603:2668   */\n  tag_57\n    /* \"#utility.yul\":2661:2667   */\n  dup2\n    /* \"#utility.yul\":2653:2659   */\n  dup5\n    /* \"#utility.yul\":2647:2651   */\n  dup5\n    /* \"#utility.yul\":2603:2668   */\n  tag_20\n  jump\t// in\ntag_57:\n    /* \"#utility.yul\":2538:2674   */\n  pop\n    /* \"#utility.yul\":2485:2674   */\n  pop\n  pop\n  jump\t// out\n    /* \"#utility.yul\":2680:2866   */\ntag_23:\n    /* \"#utility.yul\":2740:2860   */\ntag_59:\n    /* \"#utility.yul\":2757:2760   */\n  dup2\n    /* \"#utility.yul\":2750:2755   */\n  dup2\n    /* \"#utility.yul\":2747:2761   */\n  lt\n    /* \"#utility.yul\":2740:2860   */\n  iszero\n  tag_61\n  jumpi\n    /* \"#utility.yul\":2811:2850   */\n  tag_62\n    /* \"#utility.yul\":2848:2849   */\n  0x00\n    /* \"#utility.yul\":2841:2846   */\n  dup3\n    /* \"#utility.yul\":2811:2850   */\n  tag_22\n  jump\t// in\ntag_62:\n    /* \"#utility.yul\":2784:2785   */\n  0x01\n    /* \"#utility.yul\":2777:2782   */\n  dup2\n    /* \"#utility.yul\":2773:2786   */\n  add\n    /* \"#utility.yul\":2764:2786   */\n  swap1\n  pop\n    /* \"#utility.yul\":2740:2860   */\n  jump(tag_59)\ntag_61:\n    /* \"#utility.yul\":2680:2866   */\n  pop\n  pop\n  jump\t// out\n    /* \"#utility.yul\":2872:3413   */\ntag_24:\n    /* \"#utility.yul\":2972:2974   */\n  0x1f\n    /* \"#utility.yul\":2967:2970   */\n  dup3\n    /* \"#utility.yul\":2964:2975   */\n  gt\n    /* \"#utility.yul\":2961:3406   */\n  iszero\n  tag_64\n  jumpi\n    /* \"#utility.yul\":3006:3043   */\n  tag_65\n    /* \"#utility.yul\":3037:3042   */\n  dup2\n    /* \"#utility.yul\":3006:3043   */\n  tag_12\n  jump\t// in\ntag_65:\n    /* \"#utility.yul\":3089:3118   */\n  tag_66\n    /* \"#utility.yul\":3107:3117   */\n  dup5\n    /* \"#utility.yul\":3089:3118   */\n  tag_13\n  jump\t// in\ntag_66:\n    /* \"#utility.yul\":3079:3087   */\n  dup2\n    /* \"#utility.yul\":3075:3119   */\n  add\n    /* \"#utility.yul\":3272:3274   */\n  0x20\n    /* \"#utility.yul\":3260:3270   */\n  dup6\n    /* \"#utility.yul\":3257:3275   */\n  lt\n    /* \"#utility.yul\":3254:3303   */\n  iszero\n  tag_67\n  jumpi\n    /* \"#utility.yul\":3293:3301   */\n  dup2\n    /* \"#utility.yul\":3278:3301   */\n  swap1\n  pop\n    /* \"#utility.yul\":3254:3303   */\ntag_67:\n    /* \"#utility.yul\":3316:3396   */\n  tag_68\n    /* \"#utility.yul\":3372:3394   */\n  tag_69\n    /* \"#utility.yul\":3390:3393   */\n  dup6\n    /* \"#utility.yul\":3372:3394   */\n  tag_13\n  jump\t// in\ntag_69:\n    /* \"#utility.yul\":3362:3370   */\n  dup4\n    /* \"#utility.yul\":3358:3395   */\n  add\n    /* \"#utility.yul\":3345:3356   */\n  dup3\n    /* \"#utility.yul\":3316:3396   */\n  tag_23\n  jump\t// in\ntag_68:\n    /* \"#utility.yul\":2976:3406   */\n  pop\n  pop\n    /* \"#utility.yul\":2961:3406   */\ntag_64:\n    /* \"#utility.yul\":2872:3413   */\n  pop\n  pop\n  pop\n  jump\t// out\n    /* \"#utility.yul\":3419:3536   */\ntag_25:\n    /* \"#utility.yul\":3473:3481   */\n  0x00\n    /* \"#utility.yul\":3523:3528   */\n  dup3\n    /* \"#utility.yul\":3517:3521   */\n  dup3\n    /* \"#utility.yul\":3513:3529   */\n  shr\n    /* \"#utility.yul\":3492:3529   */\n  swap1\n  pop\n    /* \"#utility.yul\":3419:3536   */\n  swap3\n  swap2\n  pop\n  pop\n  jump\t// out\n    /* \"#utility.yul\":3542:3711   */\ntag_26:\n    /* \"#utility.yul\":3586:3592   */\n  0x00\n    /* \"#utility.yul\":3619:3670   */\n  tag_72\n    /* \"#utility.yul\":3667:3668   */\n  0x00\n    /* \"#utility.yul\":3663:3669   */\n  not\n    /* \"#utility.yul\":3655:3660   */\n  dup5\n    /* \"#utility.yul\":3652:3653   */\n  0x08\n    /* \"#utility.yul\":3648:3661   */\n  mul\n    /* \"#utility.yul\":3619:3670   */\n  tag_25\n  jump\t// in\ntag_72:\n    /* \"#utility.yul\":3615:3671   */\n  not\n    /* \"#utility.yul\":3700:3704   */\n  dup1\n    /* \"#utility.yul\":3694:3698   */\n  dup4\n    /* \"#utility.yul\":3690:3705   */\n  and\n    /* \"#utility.yul\":3680:3705   */\n  swap2\n  pop\n    /* \"#utility.yul\":3593:3711   */\n  pop\n    /* \"#utility.yul\":3542:3711   */\n  swap3\n  swap2\n  pop\n  pop\n  jump\t// out\n    /* \"#utility.yul\":3716:4011   */\ntag_27:\n    /* \"#utility.yul\":3792:3796   */\n  0x00\n    /* \"#utility.yul\":3938:3967   */\n  tag_74\n    /* \"#utility.yul\":3963:3966   */\n  dup4\n    /* \"#utility.yul\":3957:3961   */\n  dup4\n    /* \"#utility.yul\":3938:3967   */\n  tag_26\n  jump\t// in\ntag_74:\n    /* \"#utility.yul\":3930:3967   */\n  swap2\n  pop\n    /* \"#utility.yul\":4000:4003   */\n  dup3\n    /* \"#utility.yul\":3997:3998   */\n  0x02\n    /* \"#utility.yul\":3993:4004   */\n  mul\n    /* \"#utility.yul\":3987:3991   */\n  dup3\n    /* \"#utility.yul\":3984:4005   */\n  or\n    /* \"#utility.yul\":3976:4005   */\n  swap1\n  pop\n    /* \"#utility.yul\":3716:4011   */\n  swap3\n  swap2\n  pop\n  pop\n  jump\t// out\n    /* \"#utility.yul\":4016:5408   */\ntag_5:\n    /* \"#utility.yul\":4132:4169   */\n  tag_76\n    /* \"#utility.yul\":4165:4168   */\n  dup3\n    /* \"#utility.yul\":4132:4169   */\n  tag_8\n  jump\t// in\ntag_76:\n    /* \"#utility.yul\":4234:4252   */\n  0xffffffffffffffff\n    /* \"#utility.yul\":4226:4232   */\n  dup2\n    /* \"#utility.yul\":4223:4253   */\n  gt\n    /* \"#utility.yul\":4220:4276   */\n  iszero\n  tag_77\n  jumpi\n    /* \"#utility.yul\":4256:4274   */\n  tag_78\n  tag_9\n  jump\t// in\ntag_78:\n    /* \"#utility.yul\":4220:4276   */\ntag_77:\n    /* \"#utility.yul\":4300:4338   */\n  tag_79\n    /* \"#utility.yul\":4332:4336   */\n  dup3\n    /* \"#utility.yul\":4326:4337   */\n  sload\n    /* \"#utility.yul\":4300:4338   */\n  tag_11\n  jump\t// in\ntag_79:\n    /* \"#utility.yul\":4385:4451   */\n  tag_80\n    /* \"#utility.yul\":4444:4450   */\n  dup3\n    /* \"#utility.yul\":4436:4442   */\n  dup3\n    /* \"#utility.yul\":4430:4434   */\n  dup6\n    /* \"#utility.yul\":4385:4451   */\n  tag_24\n  jump\t// in\ntag_80:\n    /* \"#utility.yul\":4478:4479   */\n  0x00\n    /* \"#utility.yul\":4502:4506   */\n  0x20\n    /* \"#utility.yul\":4489:4506   */\n  swap1\n  pop\n    /* \"#utility.yul\":4534:4536   */\n  0x1f\n    /* \"#utility.yul\":4526:4532   */\n  dup4\n    /* \"#utility.yul\":4523:4537   */\n  gt\n    /* \"#utility.yul\":4551:4552   */\n  0x01\n    /* \"#utility.yul\":4546:5163   */\n  dup2\n  eq\n  tag_82\n  jumpi\n    /* \"#utility.yul\":5207:5208   */\n  0x00\n    /* \"#utility.yul\":5224:5230   */\n  dup5\n    /* \"#utility.yul\":5221:5298   */\n  iszero\n  tag_83\n  jumpi\n    /* \"#utility.yul\":5273:5282   */\n  dup3\n    /* \"#utility.yul\":5268:5271   */\n  dup8\n    /* \"#utility.yul\":5264:5283   */\n  add\n    /* \"#utility.yul\":5258:5284   */\n  mload\n    /* \"#utility.yul\":5249:5284   */\n  swap1\n  pop\n    /* \"#utility.yul\":5221:5298   */\ntag_83:\n    /* \"#utility.yul\":5324:5391   */\n  tag_84\n    /* \"#utility.yul\":5384:5390   */\n  dup6\n    /* \"#utility.yul\":5377:5382   */\n  dup3\n    /* \"#utility.yul\":5324:5391   */\n  tag_27\n  jump\t// in\ntag_84:\n    /* \"#utility.yul\":5318:5322   */\n  dup7\n    /* \"#utility.yul\":5311:5392   */\n  sstore\n    /* \"#utility.yul\":5180:5402   */\n  pop\n    /* \"#utility.yul\":4516:5402   */\n  jump(tag_81)\n    /* \"#utility.yul\":4546:5163   */\ntag_82:\n    /* \"#utility.yul\":4598:4602   */\n  0x1f\n    /* \"#utility.yul\":4594:4603   */\n  not\n    /* \"#utility.yul\":4586:4592   */\n  dup5\n    /* \"#utility.yul\":4582:4604   */\n  and\n    /* \"#utility.yul\":4632:4668   */\n  tag_85\n    /* \"#utility.yul\":4663:4667   */\n  dup7\n    /* \"#utility.yul\":4632:4668   */\n  tag_12\n  jump\t// in\ntag_85:\n    /* \"#utility.yul\":4690:4691   */\n  0x00\n    /* \"#utility.yul\":4704:4912   */\ntag_86:\n    /* \"#utility.yul\":4718:4725   */\n  dup3\n    /* \"#utility.yul\":4715:4716   */\n  dup2\n    /* \"#utility.yul\":4712:4726   */\n  lt\n    /* \"#utility.yul\":4704:4912   */\n  iszero\n  tag_88\n  jumpi\n    /* \"#utility.yul\":4797:4806   */\n  dup5\n    /* \"#utility.yul\":4792:4795   */\n  dup10\n    /* \"#utility.yul\":4788:4807   */\n  add\n    /* \"#utility.yul\":4782:4808   */\n  mload\n    /* \"#utility.yul\":4774:4780   */\n  dup3\n    /* \"#utility.yul\":4767:4809   */\n  sstore\n    /* \"#utility.yul\":4848:4849   */\n  0x01\n    /* \"#utility.yul\":4840:4846   */\n  dup3\n    /* \"#utility.yul\":4836:4850   */\n  add\n    /* \"#utility.yul\":4826:4850   */\n  swap2\n  pop\n    /* \"#utility.yul\":4895:4897   */\n  0x20\n    /* \"#utility.yul\":4884:4893   */\n  dup6\n    /* \"#utility.yul\":4880:4898   */\n  add\n    /* \"#utility.yul\":4867:4898   */\n  swap5\n  pop\n    /* \"#utility.yul\":4741:4745   */\n  0x20\n    /* \"#utility.yul\":4738:4739   */\n  dup2\n    /* \"#utility.yul\":4734:4746   */\n  add\n    /* \"#utility.yul\":4729:4746   */\n  swap1\n  pop\n    /* \"#utility.yul\":4704:4912   */\n  jump(tag_86)\ntag_88:\n    /* \"#utility.yul\":4940:4946   */\n  dup7\n    /* \"#utility.yul\":4931:4938   */\n  dup4\n    /* \"#utility.yul\":4928:4947   */\n  lt\n    /* \"#utility.yul\":4925:5104   */\n  iszero\n  tag_89\n  jumpi\n    /* \"#utility.yul\":4998:5007   */\n  dup5\n    /* \"#utility.yul\":4993:4996   */\n  dup10\n    /* \"#utility.yul\":4989:5008   */\n  add\n    /* \"#utility.yul\":4983:5009   */\n  mload\n    /* \"#utility.yul\":5041:5089   */\n  tag_90\n    /* \"#utility.yul\":5083:5087   */\n  0x1f\n    /* \"#utility.yul\":5075:5081   */\n  dup10\n    /* \"#utility.yul\":5071:5088   */\n  and\n    /* \"#utility.yul\":5060:5069   */\n  dup3\n    /* \"#utility.yul\":5041:5089   */\n  tag_26\n  jump\t// in\ntag_90:\n    /* \"#utility.yul\":5033:5039   */\n  dup4\n    /* \"#utility.yul\":5026:5090   */\n  sstore\n    /* \"#utility.yul\":4948:5104   */\n  pop\n    /* \"#utility.yul\":4925:5104   */\ntag_89:\n    /* \"#utility.yul\":5150:5151   */\n  0x01\n    /* \"#utility.yul\":5146:5147   */\n  0x02\n    /* \"#utility.yul\":5138:5144   */\n  dup9\n    /* \"#utility.yul\":5134:5148   */\n  mul\n    /* \"#utility.yul\":5130:5152   */\n  add\n    /* \"#utility.yul\":5124:5128   */\n  dup9\n    /* \"#utility.yul\":5117:5153   */\n  sstore\n    /* \"#utility.yul\":4553:5163   */\n  pop\n  pop\n  pop\n    /* \"#utility.yul\":4516:5402   */\ntag_81:\n  pop\n    /* \"#utility.yul\":4107:5408   */\n  pop\n  pop\n  pop\n    /* \"#utility.yul\":4016:5408   */\n  pop\n  pop\n  jump\t// out\n    /* \"contracts/hello.sol\":68:1082  contract MyFirstContract{... */\ntag_7:\n  dataSize(sub_0)\n  dup1\n  dataOffset(sub_0)\n  0x00\n  codecopy\n  0x00\n  return\nstop\n\nsub_0: assembly {\n        /* \"contracts/hello.sol\":68:1082  contract MyFirstContract{... */\n      mstore(0x40, 0x80)\n      callvalue\n      dup1\n      iszero\n      tag_1\n      jumpi\n      0x00\n      dup1\n      revert\n    tag_1:\n      pop\n      jumpi(tag_2, lt(calldatasize, 0x04))\n      shr(0xe0, calldataload(0x00))\n      dup1\n      0x739ffd79\n      gt\n      tag_16\n      jumpi\n      dup1\n      0x910654d3\n      gt\n      tag_17\n      jumpi\n      dup1\n      0x910654d3\n      eq\n      tag_12\n      jumpi\n      dup1\n      0x9c75ed51\n      eq\n      tag_13\n      jumpi\n      dup1\n      0xa531f36a\n      eq\n      tag_14\n      jumpi\n      dup1\n      0xe9e56344\n      eq\n      tag_15\n      jumpi\n      jump(tag_2)\n    tag_17:\n      dup1\n      0x739ffd79\n      eq\n      tag_9\n      jumpi\n      dup1\n      0x7c75023a\n      eq\n      tag_10\n      jumpi\n      dup1\n      0x8052474d\n      eq\n      tag_11\n      jumpi\n      jump(tag_2)\n    tag_16:\n      dup1\n      0x0c3f6acf\n      eq\n      tag_3\n      jumpi\n      dup1\n      0x15d4266c\n      eq\n      tag_4\n      jumpi\n      dup1\n      0x262a9dff\n      eq\n      tag_5\n      jumpi\n      dup1\n      0x3b9eac4b\n      eq\n      tag_6\n      jumpi\n      dup1\n      0x69743312\n      eq\n      tag_7\n      jumpi\n      dup1\n      0x6b4c08ce\n      eq\n      tag_8\n      jumpi\n    tag_2:\n      0x00\n      dup1\n      revert\n        /* \"contracts/hello.sol\":852:890  State public currentState=State.Active */\n    tag_3:\n      tag_18\n      tag_19\n      jump\t// in\n    tag_18:\n      mload(0x40)\n      tag_20\n      swap2\n      swap1\n      tag_21\n      jump\t// in\n    tag_20:\n      mload(0x40)\n      dup1\n      swap2\n      sub\n      swap1\n      return\n        /* \"contracts/hello.sol\":472:494  uint public num2=88999 */\n    tag_4:\n      tag_22\n      tag_23\n      jump\t// in\n    tag_22:\n      mload(0x40)\n      tag_24\n      swap2\n      swap1\n      tag_25\n      jump\t// in\n    tag_24:\n      mload(0x40)\n      dup1\n      swap2\n      sub\n      swap1\n      return\n        /* \"contracts/hello.sol\":246:266  bool public age=true */\n    tag_5:\n      tag_26\n      tag_27\n      jump\t// in\n    tag_26:\n      mload(0x40)\n      tag_28\n      swap2\n      swap1\n      tag_29\n      jump\t// in\n    tag_28:\n      mload(0x40)\n      dup1\n      swap2\n      sub\n      swap1\n      return\n        /* \"contracts/hello.sol\":442:461  uint256 public num1 */\n    tag_6:\n      tag_30\n      tag_31\n      jump\t// in\n    tag_30:\n      mload(0x40)\n      tag_32\n      swap2\n      swap1\n      tag_25\n      jump\t// in\n    tag_32:\n      mload(0x40)\n      dup1\n      swap2\n      sub\n      swap1\n      return\n        /* \"contracts/hello.sol\":563:582  int public num5=990 */\n    tag_7:\n      tag_33\n      tag_34\n      jump\t// in\n    tag_33:\n      mload(0x40)\n      tag_35\n      swap2\n      swap1\n      tag_36\n      jump\t// in\n    tag_35:\n      mload(0x40)\n      dup1\n      swap2\n      sub\n      swap1\n      return\n        /* \"contracts/hello.sol\":993:1013  bytes public bytes1v */\n    tag_8:\n      tag_37\n      tag_38\n      jump\t// in\n    tag_37:\n      mload(0x40)\n      tag_39\n      swap2\n      swap1\n      tag_40\n      jump\t// in\n    tag_39:\n      mload(0x40)\n      dup1\n      swap2\n      sub\n      swap1\n      return\n        /* \"contracts/hello.sol\":1024:1068  bytes public bytes1v2= hex\"1234567890abcdef\" */\n    tag_9:\n      tag_41\n      tag_42\n      jump\t// in\n    tag_41:\n      mload(0x40)\n      tag_43\n      swap2\n      swap1\n      tag_40\n      jump\t// in\n    tag_43:\n      mload(0x40)\n      dup1\n      swap2\n      sub\n      swap1\n      return\n        /* \"contracts/hello.sol\":534:552  int256 public num4 */\n    tag_10:\n      tag_44\n      tag_45\n      jump\t// in\n    tag_44:\n      mload(0x40)\n      tag_46\n      swap2\n      swap1\n      tag_36\n      jump\t// in\n    tag_46:\n      mload(0x40)\n      dup1\n      swap2\n      sub\n      swap1\n      return\n        /* \"contracts/hello.sol\":179:195  bool public Name */\n    tag_11:\n      tag_47\n      tag_48\n      jump\t// in\n    tag_47:\n      mload(0x40)\n      tag_49\n      swap2\n      swap1\n      tag_29\n      jump\t// in\n    tag_49:\n      mload(0x40)\n      dup1\n      swap2\n      sub\n      swap1\n      return\n        /* \"contracts/hello.sol\":593:608  int public num6 */\n    tag_12:\n      tag_50\n      tag_51\n      jump\t// in\n    tag_50:\n      mload(0x40)\n      tag_52\n      swap2\n      swap1\n      tag_36\n      jump\t// in\n    tag_52:\n      mload(0x40)\n      dup1\n      swap2\n      sub\n      swap1\n      return\n        /* \"contracts/hello.sol\":646:666  address public hbbbb */\n    tag_13:\n      tag_53\n      tag_54\n      jump\t// in\n    tag_53:\n      mload(0x40)\n      tag_55\n      swap2\n      swap1\n      tag_56\n      jump\t// in\n    tag_55:\n      mload(0x40)\n      dup1\n      swap2\n      sub\n      swap1\n      return\n        /* \"contracts/hello.sol\":505:521  uint public num3 */\n    tag_14:\n      tag_57\n      tag_58\n      jump\t// in\n    tag_57:\n      mload(0x40)\n      tag_59\n      swap2\n      swap1\n      tag_25\n      jump\t// in\n    tag_59:\n      mload(0x40)\n      dup1\n      swap2\n      sub\n      swap1\n      return\n        /* \"contracts/hello.sol\":702:766  address public addere=0x5B38Da6a701c568545dCfcB03FcB875f56beddC4 */\n    tag_15:\n      tag_60\n      tag_61\n      jump\t// in\n    tag_60:\n      mload(0x40)\n      tag_62\n      swap2\n      swap1\n      tag_56\n      jump\t// in\n    tag_62:\n      mload(0x40)\n      dup1\n      swap2\n      sub\n      swap1\n      return\n        /* \"contracts/hello.sol\":852:890  State public currentState=State.Active */\n    tag_19:\n      0x08\n      0x14\n      swap1\n      sload\n      swap1\n      0x0100\n      exp\n      swap1\n      div\n      0xff\n      and\n      dup2\n      jump\t// out\n        /* \"contracts/hello.sol\":472:494  uint public num2=88999 */\n    tag_23:\n      sload(0x02)\n      dup2\n      jump\t// out\n        /* \"contracts/hello.sol\":246:266  bool public age=true */\n    tag_27:\n      0x00\n      0x01\n      swap1\n      sload\n      swap1\n      0x0100\n      exp\n      swap1\n      div\n      0xff\n      and\n      dup2\n      jump\t// out\n        /* \"contracts/hello.sol\":442:461  uint256 public num1 */\n    tag_31:\n      sload(0x01)\n      dup2\n      jump\t// out\n        /* \"contracts/hello.sol\":563:582  int public num5=990 */\n    tag_34:\n      sload(0x05)\n      dup2\n      jump\t// out\n        /* \"contracts/hello.sol\":993:1013  bytes public bytes1v */\n    tag_38:\n      0x09\n      dup1\n      sload\n      tag_63\n      swap1\n      tag_64\n      jump\t// in\n    tag_63:\n      dup1\n      0x1f\n      add\n      0x20\n      dup1\n      swap2\n      div\n      mul\n      0x20\n      add\n      mload(0x40)\n      swap1\n      dup2\n      add\n      0x40\n      mstore\n      dup1\n      swap3\n      swap2\n      swap1\n      dup2\n      dup2\n      mstore\n      0x20\n      add\n      dup3\n      dup1\n      sload\n      tag_65\n      swap1\n      tag_64\n      jump\t// in\n    tag_65:\n      dup1\n      iszero\n      tag_66\n      jumpi\n      dup1\n      0x1f\n      lt\n      tag_67\n      jumpi\n      0x0100\n      dup1\n      dup4\n      sload\n      div\n      mul\n      dup4\n      mstore\n      swap2\n      0x20\n      add\n      swap2\n      jump(tag_66)\n    tag_67:\n      dup3\n      add\n      swap2\n      swap1\n      0x00\n      mstore\n      keccak256(0x00, 0x20)\n      swap1\n    tag_68:\n      dup2\n      sload\n      dup2\n      mstore\n      swap1\n      0x01\n      add\n      swap1\n      0x20\n      add\n      dup1\n      dup4\n      gt\n      tag_68\n      jumpi\n      dup3\n      swap1\n      sub\n      0x1f\n      and\n      dup3\n      add\n      swap2\n    tag_66:\n      pop\n      pop\n      pop\n      pop\n      pop\n      dup2\n      jump\t// out\n        /* \"contracts/hello.sol\":1024:1068  bytes public bytes1v2= hex\"1234567890abcdef\" */\n    tag_42:\n      0x0a\n      dup1\n      sload\n      tag_69\n      swap1\n      tag_64\n      jump\t// in\n    tag_69:\n      dup1\n      0x1f\n      add\n      0x20\n      dup1\n      swap2\n      div\n      mul\n      0x20\n      add\n      mload(0x40)\n      swap1\n      dup2\n      add\n      0x40\n      mstore\n      dup1\n      swap3\n      swap2\n      swap1\n      dup2\n      dup2\n      mstore\n      0x20\n      add\n      dup3\n      dup1\n      sload\n      tag_70\n      swap1\n      tag_64\n      jump\t// in\n    tag_70:\n      dup1\n      iszero\n      tag_71\n      jumpi\n      dup1\n      0x1f\n      lt\n      tag_72\n      jumpi\n      0x0100\n      dup1\n      dup4\n      sload\n      div\n      mul\n      dup4\n      mstore\n      swap2\n      0x20\n      add\n      swap2\n      jump(tag_71)\n    tag_72:\n      dup3\n      add\n      swap2\n      swap1\n      0x00\n      mstore\n      keccak256(0x00, 0x20)\n      swap1\n    tag_73:\n      dup2\n      sload\n      dup2\n      mstore\n      swap1\n      0x01\n      add\n      swap1\n      0x20\n      add\n      dup1\n      dup4\n      gt\n      tag_73\n      jumpi\n      dup3\n      swap1\n      sub\n      0x1f\n      and\n      dup3\n      add\n      swap2\n    tag_71:\n      pop\n      pop\n      pop\n      pop\n      pop\n      dup2\n      jump\t// out\n        /* \"contracts/hello.sol\":534:552  int256 public num4 */\n    tag_45:\n      sload(0x04)\n      dup2\n      jump\t// out\n        /* \"contracts/hello.sol\":179:195  bool public Name */\n    tag_48:\n      0x00\n      dup1\n      sload\n      swap1\n      0x0100\n      exp\n      swap1\n      div\n      0xff\n      and\n      dup2\n      jump\t// out\n        /* \"contracts/hello.sol\":593:608  int public num6 */\n    tag_51:\n      sload(0x06)\n      dup2\n      jump\t// out\n        /* \"contracts/hello.sol\":646:666  address public hbbbb */\n    tag_54:\n      0x07\n      0x00\n      swap1\n      sload\n      swap1\n      0x0100\n      exp\n      swap1\n      div\n      0xffffffffffffffffffffffffffffffffffffffff\n      and\n      dup2\n      jump\t// out\n        /* \"contracts/hello.sol\":505:521  uint public num3 */\n    tag_58:\n      sload(0x03)\n      dup2\n      jump\t// out\n        /* \"contracts/hello.sol\":702:766  address public addere=0x5B38Da6a701c568545dCfcB03FcB875f56beddC4 */\n    tag_61:\n      0x08\n      0x00\n      swap1\n      sload\n      swap1\n      0x0100\n      exp\n      swap1\n      div\n      0xffffffffffffffffffffffffffffffffffffffff\n      and\n      dup2\n      jump\t// out\n        /* \"#utility.yul\":7:187   */\n    tag_74:\n        /* \"#utility.yul\":55:132   */\n      0x4e487b7100000000000000000000000000000000000000000000000000000000\n        /* \"#utility.yul\":52:53   */\n      0x00\n        /* \"#utility.yul\":45:133   */\n      mstore\n        /* \"#utility.yul\":152:156   */\n      0x21\n        /* \"#utility.yul\":149:150   */\n      0x04\n        /* \"#utility.yul\":142:157   */\n      mstore\n        /* \"#utility.yul\":176:180   */\n      0x24\n        /* \"#utility.yul\":173:174   */\n      0x00\n        /* \"#utility.yul\":166:181   */\n      revert\n        /* \"#utility.yul\":193:306   */\n    tag_75:\n        /* \"#utility.yul\":274:275   */\n      0x03\n        /* \"#utility.yul\":267:272   */\n      dup2\n        /* \"#utility.yul\":264:276   */\n      lt\n        /* \"#utility.yul\":254:300   */\n      tag_97\n      jumpi\n        /* \"#utility.yul\":280:298   */\n      tag_98\n      tag_74\n      jump\t// in\n    tag_98:\n        /* \"#utility.yul\":254:300   */\n    tag_97:\n        /* \"#utility.yul\":193:306   */\n      pop\n      jump\t// out\n        /* \"#utility.yul\":312:439   */\n    tag_76:\n        /* \"#utility.yul\":357:364   */\n      0x00\n        /* \"#utility.yul\":386:391   */\n      dup2\n        /* \"#utility.yul\":375:391   */\n      swap1\n      pop\n        /* \"#utility.yul\":392:433   */\n      tag_100\n        /* \"#utility.yul\":427:432   */\n      dup3\n        /* \"#utility.yul\":392:433   */\n      tag_75\n      jump\t// in\n    tag_100:\n        /* \"#utility.yul\":312:439   */\n      swap2\n      swap1\n      pop\n      jump\t// out\n        /* \"#utility.yul\":445:572   */\n    tag_77:\n        /* \"#utility.yul\":501:510   */\n      0x00\n        /* \"#utility.yul\":534:566   */\n      tag_102\n        /* \"#utility.yul\":560:565   */\n      dup3\n        /* \"#utility.yul\":534:566   */\n      tag_76\n      jump\t// in\n    tag_102:\n        /* \"#utility.yul\":521:566   */\n      swap1\n      pop\n        /* \"#utility.yul\":445:572   */\n      swap2\n      swap1\n      pop\n      jump\t// out\n        /* \"#utility.yul\":578:721   */\n    tag_78:\n        /* \"#utility.yul\":671:714   */\n      tag_104\n        /* \"#utility.yul\":708:713   */\n      dup2\n        /* \"#utility.yul\":671:714   */\n      tag_77\n      jump\t// in\n    tag_104:\n        /* \"#utility.yul\":666:669   */\n      dup3\n        /* \"#utility.yul\":659:715   */\n      mstore\n        /* \"#utility.yul\":578:721   */\n      pop\n      pop\n      jump\t// out\n        /* \"#utility.yul\":727:961   */\n    tag_21:\n        /* \"#utility.yul\":826:830   */\n      0x00\n        /* \"#utility.yul\":864:866   */\n      0x20\n        /* \"#utility.yul\":853:862   */\n      dup3\n        /* \"#utility.yul\":849:867   */\n      add\n        /* \"#utility.yul\":841:867   */\n      swap1\n      pop\n        /* \"#utility.yul\":877:954   */\n      tag_106\n        /* \"#utility.yul\":951:952   */\n      0x00\n        /* \"#utility.yul\":940:949   */\n      dup4\n        /* \"#utility.yul\":936:953   */\n      add\n        /* \"#utility.yul\":927:933   */\n      dup5\n        /* \"#utility.yul\":877:954   */\n      tag_78\n      jump\t// in\n    tag_106:\n        /* \"#utility.yul\":727:961   */\n      swap3\n      swap2\n      pop\n      pop\n      jump\t// out\n        /* \"#utility.yul\":967:1044   */\n    tag_79:\n        /* \"#utility.yul\":1004:1011   */\n      0x00\n        /* \"#utility.yul\":1033:1038   */\n      dup2\n        /* \"#utility.yul\":1022:1038   */\n      swap1\n      pop\n        /* \"#utility.yul\":967:1044   */\n      swap2\n      swap1\n      pop\n      jump\t// out\n        /* \"#utility.yul\":1050:1168   */\n    tag_80:\n        /* \"#utility.yul\":1137:1161   */\n      tag_109\n        /* \"#utility.yul\":1155:1160   */\n      dup2\n        /* \"#utility.yul\":1137:1161   */\n      tag_79\n      jump\t// in\n    tag_109:\n        /* \"#utility.yul\":1132:1135   */\n      dup3\n        /* \"#utility.yul\":1125:1162   */\n      mstore\n        /* \"#utility.yul\":1050:1168   */\n      pop\n      pop\n      jump\t// out\n        /* \"#utility.yul\":1174:1396   */\n    tag_25:\n        /* \"#utility.yul\":1267:1271   */\n      0x00\n        /* \"#utility.yul\":1305:1307   */\n      0x20\n        /* \"#utility.yul\":1294:1303   */\n      dup3\n        /* \"#utility.yul\":1290:1308   */\n      add\n        /* \"#utility.yul\":1282:1308   */\n      swap1\n      pop\n        /* \"#utility.yul\":1318:1389   */\n      tag_111\n        /* \"#utility.yul\":1386:1387   */\n      0x00\n        /* \"#utility.yul\":1375:1384   */\n      dup4\n        /* \"#utility.yul\":1371:1388   */\n      add\n        /* \"#utility.yul\":1362:1368   */\n      dup5\n        /* \"#utility.yul\":1318:1389   */\n      tag_80\n      jump\t// in\n    tag_111:\n        /* \"#utility.yul\":1174:1396   */\n      swap3\n      swap2\n      pop\n      pop\n      jump\t// out\n        /* \"#utility.yul\":1402:1492   */\n    tag_81:\n        /* \"#utility.yul\":1436:1443   */\n      0x00\n        /* \"#utility.yul\":1479:1484   */\n      dup2\n        /* \"#utility.yul\":1472:1485   */\n      iszero\n        /* \"#utility.yul\":1465:1486   */\n      iszero\n        /* \"#utility.yul\":1454:1486   */\n      swap1\n      pop\n        /* \"#utility.yul\":1402:1492   */\n      swap2\n      swap1\n      pop\n      jump\t// out\n        /* \"#utility.yul\":1498:1607   */\n    tag_82:\n        /* \"#utility.yul\":1579:1600   */\n      tag_114\n        /* \"#utility.yul\":1594:1599   */\n      dup2\n        /* \"#utility.yul\":1579:1600   */\n      tag_81\n      jump\t// in\n    tag_114:\n        /* \"#utility.yul\":1574:1577   */\n      dup3\n        /* \"#utility.yul\":1567:1601   */\n      mstore\n        /* \"#utility.yul\":1498:1607   */\n      pop\n      pop\n      jump\t// out\n        /* \"#utility.yul\":1613:1823   */\n    tag_29:\n        /* \"#utility.yul\":1700:1704   */\n      0x00\n        /* \"#utility.yul\":1738:1740   */\n      0x20\n        /* \"#utility.yul\":1727:1736   */\n      dup3\n        /* \"#utility.yul\":1723:1741   */\n      add\n        /* \"#utility.yul\":1715:1741   */\n      swap1\n      pop\n        /* \"#utility.yul\":1751:1816   */\n      tag_116\n        /* \"#utility.yul\":1813:1814   */\n      0x00\n        /* \"#utility.yul\":1802:1811   */\n      dup4\n        /* \"#utility.yul\":1798:1815   */\n      add\n        /* \"#utility.yul\":1789:1795   */\n      dup5\n        /* \"#utility.yul\":1751:1816   */\n      tag_82\n      jump\t// in\n    tag_116:\n        /* \"#utility.yul\":1613:1823   */\n      swap3\n      swap2\n      pop\n      pop\n      jump\t// out\n        /* \"#utility.yul\":1829:1905   */\n    tag_83:\n        /* \"#utility.yul\":1865:1872   */\n      0x00\n        /* \"#utility.yul\":1894:1899   */\n      dup2\n        /* \"#utility.yul\":1883:1899   */\n      swap1\n      pop\n        /* \"#utility.yul\":1829:1905   */\n      swap2\n      swap1\n      pop\n      jump\t// out\n        /* \"#utility.yul\":1911:2026   */\n    tag_84:\n        /* \"#utility.yul\":1996:2019   */\n      tag_119\n        /* \"#utility.yul\":2013:2018   */\n      dup2\n        /* \"#utility.yul\":1996:2019   */\n      tag_83\n      jump\t// in\n    tag_119:\n        /* \"#utility.yul\":1991:1994   */\n      dup3\n        /* \"#utility.yul\":1984:2020   */\n      mstore\n        /* \"#utility.yul\":1911:2026   */\n      pop\n      pop\n      jump\t// out\n        /* \"#utility.yul\":2032:2250   */\n    tag_36:\n        /* \"#utility.yul\":2123:2127   */\n      0x00\n        /* \"#utility.yul\":2161:2163   */\n      0x20\n        /* \"#utility.yul\":2150:2159   */\n      dup3\n        /* \"#utility.yul\":2146:2164   */\n      add\n        /* \"#utility.yul\":2138:2164   */\n      swap1\n      pop\n        /* \"#utility.yul\":2174:2243   */\n      tag_121\n        /* \"#utility.yul\":2240:2241   */\n      0x00\n        /* \"#utility.yul\":2229:2238   */\n      dup4\n        /* \"#utility.yul\":2225:2242   */\n      add\n        /* \"#utility.yul\":2216:2222   */\n      dup5\n        /* \"#utility.yul\":2174:2243   */\n      tag_84\n      jump\t// in\n    tag_121:\n        /* \"#utility.yul\":2032:2250   */\n      swap3\n      swap2\n      pop\n      pop\n      jump\t// out\n        /* \"#utility.yul\":2256:2354   */\n    tag_85:\n        /* \"#utility.yul\":2307:2313   */\n      0x00\n        /* \"#utility.yul\":2341:2346   */\n      dup2\n        /* \"#utility.yul\":2335:2347   */\n      mload\n        /* \"#utility.yul\":2325:2347   */\n      swap1\n      pop\n        /* \"#utility.yul\":2256:2354   */\n      swap2\n      swap1\n      pop\n      jump\t// out\n        /* \"#utility.yul\":2360:2528   */\n    tag_86:\n        /* \"#utility.yul\":2443:2454   */\n      0x00\n        /* \"#utility.yul\":2477:2483   */\n      dup3\n        /* \"#utility.yul\":2472:2475   */\n      dup3\n        /* \"#utility.yul\":2465:2484   */\n      mstore\n        /* \"#utility.yul\":2517:2521   */\n      0x20\n        /* \"#utility.yul\":2512:2515   */\n      dup3\n        /* \"#utility.yul\":2508:2522   */\n      add\n        /* \"#utility.yul\":2493:2522   */\n      swap1\n      pop\n        /* \"#utility.yul\":2360:2528   */\n      swap3\n      swap2\n      pop\n      pop\n      jump\t// out\n        /* \"#utility.yul\":2534:2673   */\n    tag_87:\n        /* \"#utility.yul\":2623:2629   */\n      dup3\n        /* \"#utility.yul\":2618:2621   */\n      dup2\n        /* \"#utility.yul\":2613:2616   */\n      dup4\n        /* \"#utility.yul\":2607:2630   */\n      mcopy\n        /* \"#utility.yul\":2664:2665   */\n      0x00\n        /* \"#utility.yul\":2655:2661   */\n      dup4\n        /* \"#utility.yul\":2650:2653   */\n      dup4\n        /* \"#utility.yul\":2646:2662   */\n      add\n        /* \"#utility.yul\":2639:2666   */\n      mstore\n        /* \"#utility.yul\":2534:2673   */\n      pop\n      pop\n      pop\n      jump\t// out\n        /* \"#utility.yul\":2679:2781   */\n    tag_88:\n        /* \"#utility.yul\":2720:2726   */\n      0x00\n        /* \"#utility.yul\":2771:2773   */\n      0x1f\n        /* \"#utility.yul\":2767:2774   */\n      not\n        /* \"#utility.yul\":2762:2764   */\n      0x1f\n        /* \"#utility.yul\":2755:2760   */\n      dup4\n        /* \"#utility.yul\":2751:2765   */\n      add\n        /* \"#utility.yul\":2747:2775   */\n      and\n        /* \"#utility.yul\":2737:2775   */\n      swap1\n      pop\n        /* \"#utility.yul\":2679:2781   */\n      swap2\n      swap1\n      pop\n      jump\t// out\n        /* \"#utility.yul\":2787:3160   */\n    tag_89:\n        /* \"#utility.yul\":2873:2876   */\n      0x00\n        /* \"#utility.yul\":2901:2939   */\n      tag_127\n        /* \"#utility.yul\":2933:2938   */\n      dup3\n        /* \"#utility.yul\":2901:2939   */\n      tag_85\n      jump\t// in\n    tag_127:\n        /* \"#utility.yul\":2955:3025   */\n      tag_128\n        /* \"#utility.yul\":3018:3024   */\n      dup2\n        /* \"#utility.yul\":3013:3016   */\n      dup6\n        /* \"#utility.yul\":2955:3025   */\n      tag_86\n      jump\t// in\n    tag_128:\n        /* \"#utility.yul\":2948:3025   */\n      swap4\n      pop\n        /* \"#utility.yul\":3034:3099   */\n      tag_129\n        /* \"#utility.yul\":3092:3098   */\n      dup2\n        /* \"#utility.yul\":3087:3090   */\n      dup6\n        /* \"#utility.yul\":3080:3084   */\n      0x20\n        /* \"#utility.yul\":3073:3078   */\n      dup7\n        /* \"#utility.yul\":3069:3085   */\n      add\n        /* \"#utility.yul\":3034:3099   */\n      tag_87\n      jump\t// in\n    tag_129:\n        /* \"#utility.yul\":3124:3153   */\n      tag_130\n        /* \"#utility.yul\":3146:3152   */\n      dup2\n        /* \"#utility.yul\":3124:3153   */\n      tag_88\n      jump\t// in\n    tag_130:\n        /* \"#utility.yul\":3119:3122   */\n      dup5\n        /* \"#utility.yul\":3115:3154   */\n      add\n        /* \"#utility.yul\":3108:3154   */\n      swap2\n      pop\n        /* \"#utility.yul\":2877:3160   */\n      pop\n        /* \"#utility.yul\":2787:3160   */\n      swap3\n      swap2\n      pop\n      pop\n      jump\t// out\n        /* \"#utility.yul\":3166:3475   */\n    tag_40:\n        /* \"#utility.yul\":3277:3281   */\n      0x00\n        /* \"#utility.yul\":3315:3317   */\n      0x20\n        /* \"#utility.yul\":3304:3313   */\n      dup3\n        /* \"#utility.yul\":3300:3318   */\n      add\n        /* \"#utility.yul\":3292:3318   */\n      swap1\n      pop\n        /* \"#utility.yul\":3364:3373   */\n      dup2\n        /* \"#utility.yul\":3358:3362   */\n      dup2\n        /* \"#utility.yul\":3354:3374   */\n      sub\n        /* \"#utility.yul\":3350:3351   */\n      0x00\n        /* \"#utility.yul\":3339:3348   */\n      dup4\n        /* \"#utility.yul\":3335:3352   */\n      add\n        /* \"#utility.yul\":3328:3375   */\n      mstore\n        /* \"#utility.yul\":3392:3468   */\n      tag_132\n        /* \"#utility.yul\":3463:3467   */\n      dup2\n        /* \"#utility.yul\":3454:3460   */\n      dup5\n        /* \"#utility.yul\":3392:3468   */\n      tag_89\n      jump\t// in\n    tag_132:\n        /* \"#utility.yul\":3384:3468   */\n      swap1\n      pop\n        /* \"#utility.yul\":3166:3475   */\n      swap3\n      swap2\n      pop\n      pop\n      jump\t// out\n        /* \"#utility.yul\":3481:3607   */\n    tag_90:\n        /* \"#utility.yul\":3518:3525   */\n      0x00\n        /* \"#utility.yul\":3558:3600   */\n      0xffffffffffffffffffffffffffffffffffffffff\n        /* \"#utility.yul\":3551:3556   */\n      dup3\n        /* \"#utility.yul\":3547:3601   */\n      and\n        /* \"#utility.yul\":3536:3601   */\n      swap1\n      pop\n        /* \"#utility.yul\":3481:3607   */\n      swap2\n      swap1\n      pop\n      jump\t// out\n        /* \"#utility.yul\":3613:3709   */\n    tag_91:\n        /* \"#utility.yul\":3650:3657   */\n      0x00\n        /* \"#utility.yul\":3679:3703   */\n      tag_135\n        /* \"#utility.yul\":3697:3702   */\n      dup3\n        /* \"#utility.yul\":3679:3703   */\n      tag_90\n      jump\t// in\n    tag_135:\n        /* \"#utility.yul\":3668:3703   */\n      swap1\n      pop\n        /* \"#utility.yul\":3613:3709   */\n      swap2\n      swap1\n      pop\n      jump\t// out\n        /* \"#utility.yul\":3715:3833   */\n    tag_92:\n        /* \"#utility.yul\":3802:3826   */\n      tag_137\n        /* \"#utility.yul\":3820:3825   */\n      dup2\n        /* \"#utility.yul\":3802:3826   */\n      tag_91\n      jump\t// in\n    tag_137:\n        /* \"#utility.yul\":3797:3800   */\n      dup3\n        /* \"#utility.yul\":3790:3827   */\n      mstore\n        /* \"#utility.yul\":3715:3833   */\n      pop\n      pop\n      jump\t// out\n        /* \"#utility.yul\":3839:4061   */\n    tag_56:\n        /* \"#utility.yul\":3932:3936   */\n      0x00\n        /* \"#utility.yul\":3970:3972   */\n      0x20\n        /* \"#utility.yul\":3959:3968   */\n      dup3\n        /* \"#utility.yul\":3955:3973   */\n      add\n        /* \"#utility.yul\":3947:3973   */\n      swap1\n      pop\n        /* \"#utility.yul\":3983:4054   */\n      tag_139\n        /* \"#utility.yul\":4051:4052   */\n      0x00\n        /* \"#utility.yul\":4040:4049   */\n      dup4\n        /* \"#utility.yul\":4036:4053   */\n      add\n        /* \"#utility.yul\":4027:4033   */\n      dup5\n        /* \"#utility.yul\":3983:4054   */\n      tag_92\n      jump\t// in\n    tag_139:\n        /* \"#utility.yul\":3839:4061   */\n      swap3\n      swap2\n      pop\n      pop\n      jump\t// out\n        /* \"#utility.yul\":4067:4247   */\n    tag_93:\n        /* \"#utility.yul\":4115:4192   */\n      0x4e487b7100000000000000000000000000000000000000000000000000000000\n        /* \"#utility.yul\":4112:4113   */\n      0x00\n        /* \"#utility.yul\":4105:4193   */\n      mstore\n        /* \"#utility.yul\":4212:4216   */\n      0x22\n        /* \"#utility.yul\":4209:4210   */\n      0x04\n        /* \"#utility.yul\":4202:4217   */\n      mstore\n        /* \"#utility.yul\":4236:4240   */\n      0x24\n        /* \"#utility.yul\":4233:4234   */\n      0x00\n        /* \"#utility.yul\":4226:4241   */\n      revert\n        /* \"#utility.yul\":4253:4573   */\n    tag_64:\n        /* \"#utility.yul\":4297:4303   */\n      0x00\n        /* \"#utility.yul\":4334:4335   */\n      0x02\n        /* \"#utility.yul\":4328:4332   */\n      dup3\n        /* \"#utility.yul\":4324:4336   */\n      div\n        /* \"#utility.yul\":4314:4336   */\n      swap1\n      pop\n        /* \"#utility.yul\":4381:4382   */\n      0x01\n        /* \"#utility.yul\":4375:4379   */\n      dup3\n        /* \"#utility.yul\":4371:4383   */\n      and\n        /* \"#utility.yul\":4402:4420   */\n      dup1\n        /* \"#utility.yul\":4392:4473   */\n      tag_142\n      jumpi\n        /* \"#utility.yul\":4458:4462   */\n      0x7f\n        /* \"#utility.yul\":4450:4456   */\n      dup3\n        /* \"#utility.yul\":4446:4463   */\n      and\n        /* \"#utility.yul\":4436:4463   */\n      swap2\n      pop\n        /* \"#utility.yul\":4392:4473   */\n    tag_142:\n        /* \"#utility.yul\":4520:4522   */\n      0x20\n        /* \"#utility.yul\":4512:4518   */\n      dup3\n        /* \"#utility.yul\":4509:4523   */\n      lt\n        /* \"#utility.yul\":4489:4507   */\n      dup2\n        /* \"#utility.yul\":4486:4524   */\n      sub\n        /* \"#utility.yul\":4483:4567   */\n      tag_143\n      jumpi\n        /* \"#utility.yul\":4539:4557   */\n      tag_144\n      tag_93\n      jump\t// in\n    tag_144:\n        /* \"#utility.yul\":4483:4567   */\n    tag_143:\n        /* \"#utility.yul\":4304:4573   */\n      pop\n        /* \"#utility.yul\":4253:4573   */\n      swap2\n      swap1\n      pop\n      jump\t// out\n\n    auxdata: 0xa2646970667358221220f821ae6e04e66a1994d3fc3eea8c2de9183da1455da8f0491644dde5cd85a2ca64736f6c63430008190033\n}\n",
				"bytecode": {
					"linkReferences": {},
					"object": "608060405260015f60016101000a81548160ff02191690831515021790555062015ba76002556103de600555735b38da6a701c568545dcfcb03fcb875f56beddc460085f6101000a81548173ffffffffffffffffffffffffffffffffffffffff021916908373ffffffffffffffffffffffffffffffffffffffff1602179055505f600860146101000a81548160ff021916908360028111156100a4576100a36100ff565b5b02179055506040518060400160405280600881526020017f1234567890abcdef000000000000000000000000000000000000000000000000815250600a90816100ed9190610366565b503480156100f9575f80fd5b50610435565b7f4e487b71000000000000000000000000000000000000000000000000000000005f52602160045260245ffd5b5f81519050919050565b7f4e487b71000000000000000000000000000000000000000000000000000000005f52604160045260245ffd5b7f4e487b71000000000000000000000000000000000000000000000000000000005f52602260045260245ffd5b5f60028204905060018216806101a757607f821691505b6020821081036101ba576101b9610163565b5b50919050565b5f819050815f5260205f209050919050565b5f6020601f8301049050919050565b5f82821b905092915050565b5f6008830261021c7fffffffffffffffffffffffffffffffffffffffffffffffffffffffffffffffff826101e1565b61022686836101e1565b95508019841693508086168417925050509392505050565b5f819050919050565b5f819050919050565b5f61026a6102656102608461023e565b610247565b61023e565b9050919050565b5f819050919050565b61028383610250565b61029761028f82610271565b8484546101ed565b825550505050565b5f90565b6102ab61029f565b6102b681848461027a565b505050565b5b818110156102d9576102ce5f826102a3565b6001810190506102bc565b5050565b601f82111561031e576102ef816101c0565b6102f8846101d2565b81016020851015610307578190505b61031b610313856101d2565b8301826102bb565b50505b505050565b5f82821c905092915050565b5f61033e5f1984600802610323565b1980831691505092915050565b5f610356838361032f565b9150826002028217905092915050565b61036f8261012c565b67ffffffffffffffff81111561038857610387610136565b5b6103928254610190565b61039d8282856102dd565b5f60209050601f8311600181146103ce575f84156103bc578287015190505b6103c6858261034b565b86555061042d565b601f1984166103dc866101c0565b5f5b82811015610403578489015182556001820191506020850194506020810190506103de565b86831015610420578489015161041c601f89168261032f565b8355505b6001600288020188555050505b505050505050565b6106ae806104425f395ff3fe608060405234801561000f575f80fd5b50600436106100cd575f3560e01c8063739ffd791161008a578063910654d311610064578063910654d3146101df5780639c75ed51146101fd578063a531f36a1461021b578063e9e5634414610239576100cd565b8063739ffd79146101855780637c75023a146101a35780638052474d146101c1576100cd565b80630c3f6acf146100d157806315d4266c146100ef578063262a9dff1461010d5780633b9eac4b1461012b57806369743312146101495780636b4c08ce14610167575b5f80fd5b6100d9610257565b6040516100e69190610485565b60405180910390f35b6100f761026a565b60405161010491906104b6565b60405180910390f35b610115610270565b60405161012291906104e9565b60405180910390f35b610133610282565b60405161014091906104b6565b60405180910390f35b610151610288565b60405161015e919061051a565b60405180910390f35b61016f61028e565b60405161017c91906105a3565b60405180910390f35b61018d61031a565b60405161019a91906105a3565b60405180910390f35b6101ab6103a6565b6040516101b8919061051a565b60405180910390f35b6101c96103ac565b6040516101d691906104e9565b60405180910390f35b6101e76103bc565b6040516101f4919061051a565b60405180910390f35b6102056103c2565b6040516102129190610602565b60405180910390f35b6102236103e7565b60405161023091906104b6565b60405180910390f35b6102416103ed565b60405161024e9190610602565b60405180910390f35b600860149054906101000a900460ff1681565b60025481565b5f60019054906101000a900460ff1681565b60015481565b60055481565b6009805461029b90610648565b80601f01602080910402602001604051908101604052809291908181526020018280546102c790610648565b80156103125780601f106102e957610100808354040283529160200191610312565b820191905f5260205f20905b8154815290600101906020018083116102f557829003601f168201915b505050505081565b600a805461032790610648565b80601f016020809104026020016040519081016040528092919081815260200182805461035390610648565b801561039e5780601f106103755761010080835404028352916020019161039e565b820191905f5260205f20905b81548152906001019060200180831161038157829003601f168201915b505050505081565b60045481565b5f8054906101000a900460ff1681565b60065481565b60075f9054906101000a900473ffffffffffffffffffffffffffffffffffffffff1681565b60035481565b60085f9054906101000a900473ffffffffffffffffffffffffffffffffffffffff1681565b7f4e487b71000000000000000000000000000000000000000000000000000000005f52602160045260245ffd5b600381106104505761044f610412565b5b50565b5f8190506104608261043f565b919050565b5f61046f82610453565b9050919050565b61047f81610465565b82525050565b5f6020820190506104985f830184610476565b92915050565b5f819050919050565b6104b08161049e565b82525050565b5f6020820190506104c95f8301846104a7565b92915050565b5f8115159050919050565b6104e3816104cf565b82525050565b5f6020820190506104fc5f8301846104da565b92915050565b5f819050919050565b61051481610502565b82525050565b5f60208201905061052d5f83018461050b565b92915050565b5f81519050919050565b5f82825260208201905092915050565b8281835e5f83830152505050565b5f601f19601f8301169050919050565b5f61057582610533565b61057f818561053d565b935061058f81856020860161054d565b6105988161055b565b840191505092915050565b5f6020820190508181035f8301526105bb818461056b565b905092915050565b5f73ffffffffffffffffffffffffffffffffffffffff82169050919050565b5f6105ec826105c3565b9050919050565b6105fc816105e2565b82525050565b5f6020820190506106155f8301846105f3565b92915050565b7f4e487b71000000000000000000000000000000000000000000000000000000005f52602260045260245ffd5b5f600282049050600182168061065f57607f821691505b6020821081036106725761067161061b565b5b5091905056fea2646970667358221220f821ae6e04e66a1994d3fc3eea8c2de9183da1455da8f0491644dde5cd85a2ca64736f6c63430008190033",
					"opcodes": "PUSH1 0x80 PUSH1 0x40 MSTORE PUSH1 0x1 PUSH0 PUSH1 0x1 PUSH2 0x100 EXP DUP2 SLOAD DUP2 PUSH1 0xFF MUL NOT AND SWAP1 DUP4 ISZERO ISZERO MUL OR SWAP1 SSTORE POP PUSH3 0x15BA7 PUSH1 0x2 SSTORE PUSH2 0x3DE PUSH1 0x5 SSTORE PUSH20 0x5B38DA6A701C568545DCFCB03FCB875F56BEDDC4 PUSH1 0x8 PUSH0 PUSH2 0x100 EXP DUP2 SLOAD DUP2 PUSH20 0xFFFFFFFFFFFFFFFFFFFFFFFFFFFFFFFFFFFFFFFF MUL NOT AND SWAP1 DUP4 PUSH20 0xFFFFFFFFFFFFFFFFFFFFFFFFFFFFFFFFFFFFFFFF AND MUL OR SWAP1 SSTORE POP PUSH0 PUSH1 0x8 PUSH1 0x14 PUSH2 0x100 EXP DUP2 SLOAD DUP2 PUSH1 0xFF MUL NOT AND SWAP1 DUP4 PUSH1 0x2 DUP2 GT ISZERO PUSH2 0xA4 JUMPI PUSH2 0xA3 PUSH2 0xFF JUMP JUMPDEST JUMPDEST MUL OR SWAP1 SSTORE POP PUSH1 0x40 MLOAD DUP1 PUSH1 0x40 ADD PUSH1 0x40 MSTORE DUP1 PUSH1 0x8 DUP2 MSTORE PUSH1 0x20 ADD PUSH32 0x1234567890ABCDEF000000000000000000000000000000000000000000000000 DUP2 MSTORE POP PUSH1 0xA SWAP1 DUP2 PUSH2 0xED SWAP2 SWAP1 PUSH2 0x366 JUMP JUMPDEST POP CALLVALUE DUP1 ISZERO PUSH2 0xF9 JUMPI PUSH0 DUP1 REVERT JUMPDEST POP PUSH2 0x435 JUMP JUMPDEST PUSH32 0x4E487B7100000000000000000000000000000000000000000000000000000000 PUSH0 MSTORE PUSH1 0x21 PUSH1 0x4 MSTORE PUSH1 0x24 PUSH0 REVERT JUMPDEST PUSH0 DUP2 MLOAD SWAP1 POP SWAP2 SWAP1 POP JUMP JUMPDEST PUSH32 0x4E487B7100000000000000000000000000000000000000000000000000000000 PUSH0 MSTORE PUSH1 0x41 PUSH1 0x4 MSTORE PUSH1 0x24 PUSH0 REVERT JUMPDEST PUSH32 0x4E487B7100000000000000000000000000000000000000000000000000000000 PUSH0 MSTORE PUSH1 0x22 PUSH1 0x4 MSTORE PUSH1 0x24 PUSH0 REVERT JUMPDEST PUSH0 PUSH1 0x2 DUP3 DIV SWAP1 POP PUSH1 0x1 DUP3 AND DUP1 PUSH2 0x1A7 JUMPI PUSH1 0x7F DUP3 AND SWAP2 POP JUMPDEST PUSH1 0x20 DUP3 LT DUP2 SUB PUSH2 0x1BA JUMPI PUSH2 0x1B9 PUSH2 0x163 JUMP JUMPDEST JUMPDEST POP SWAP2 SWAP1 POP JUMP JUMPDEST PUSH0 DUP2 SWAP1 POP DUP2 PUSH0 MSTORE PUSH1 0x20 PUSH0 KECCAK256 SWAP1 POP SWAP2 SWAP1 POP JUMP JUMPDEST PUSH0 PUSH1 0x20 PUSH1 0x1F DUP4 ADD DIV SWAP1 POP SWAP2 SWAP1 POP JUMP JUMPDEST PUSH0 DUP3 DUP3 SHL SWAP1 POP SWAP3 SWAP2 POP POP JUMP JUMPDEST PUSH0 PUSH1 0x8 DUP4 MUL PUSH2 0x21C PUSH32 0xFFFFFFFFFFFFFFFFFFFFFFFFFFFFFFFFFFFFFFFFFFFFFFFFFFFFFFFFFFFFFFFF DUP3 PUSH2 0x1E1 JUMP JUMPDEST PUSH2 0x226 DUP7 DUP4 PUSH2 0x1E1 JUMP JUMPDEST SWAP6 POP DUP1 NOT DUP5 AND SWAP4 POP DUP1 DUP7 AND DUP5 OR SWAP3 POP POP POP SWAP4 SWAP3 POP POP POP JUMP JUMPDEST PUSH0 DUP2 SWAP1 POP SWAP2 SWAP1 POP JUMP JUMPDEST PUSH0 DUP2 SWAP1 POP SWAP2 SWAP1 POP JUMP JUMPDEST PUSH0 PUSH2 0x26A PUSH2 0x265 PUSH2 0x260 DUP5 PUSH2 0x23E JUMP JUMPDEST PUSH2 0x247 JUMP JUMPDEST PUSH2 0x23E JUMP JUMPDEST SWAP1 POP SWAP2 SWAP1 POP JUMP JUMPDEST PUSH0 DUP2 SWAP1 POP SWAP2 SWAP1 POP JUMP JUMPDEST PUSH2 0x283 DUP4 PUSH2 0x250 JUMP JUMPDEST PUSH2 0x297 PUSH2 0x28F DUP3 PUSH2 0x271 JUMP JUMPDEST DUP5 DUP5 SLOAD PUSH2 0x1ED JUMP JUMPDEST DUP3 SSTORE POP POP POP POP JUMP JUMPDEST PUSH0 SWAP1 JUMP JUMPDEST PUSH2 0x2AB PUSH2 0x29F JUMP JUMPDEST PUSH2 0x2B6 DUP2 DUP5 DUP5 PUSH2 0x27A JUMP JUMPDEST POP POP POP JUMP JUMPDEST JUMPDEST DUP2 DUP2 LT ISZERO PUSH2 0x2D9 JUMPI PUSH2 0x2CE PUSH0 DUP3 PUSH2 0x2A3 JUMP JUMPDEST PUSH1 0x1 DUP2 ADD SWAP1 POP PUSH2 0x2BC JUMP JUMPDEST POP POP JUMP JUMPDEST PUSH1 0x1F DUP3 GT ISZERO PUSH2 0x31E JUMPI PUSH2 0x2EF DUP2 PUSH2 0x1C0 JUMP JUMPDEST PUSH2 0x2F8 DUP5 PUSH2 0x1D2 JUMP JUMPDEST DUP2 ADD PUSH1 0x20 DUP6 LT ISZERO PUSH2 0x307 JUMPI DUP2 SWAP1 POP JUMPDEST PUSH2 0x31B PUSH2 0x313 DUP6 PUSH2 0x1D2 JUMP JUMPDEST DUP4 ADD DUP3 PUSH2 0x2BB JUMP JUMPDEST POP POP JUMPDEST POP POP POP JUMP JUMPDEST PUSH0 DUP3 DUP3 SHR SWAP1 POP SWAP3 SWAP2 POP POP JUMP JUMPDEST PUSH0 PUSH2 0x33E PUSH0 NOT DUP5 PUSH1 0x8 MUL PUSH2 0x323 JUMP JUMPDEST NOT DUP1 DUP4 AND SWAP2 POP POP SWAP3 SWAP2 POP POP JUMP JUMPDEST PUSH0 PUSH2 0x356 DUP4 DUP4 PUSH2 0x32F JUMP JUMPDEST SWAP2 POP DUP3 PUSH1 0x2 MUL DUP3 OR SWAP1 POP SWAP3 SWAP2 POP POP JUMP JUMPDEST PUSH2 0x36F DUP3 PUSH2 0x12C JUMP JUMPDEST PUSH8 0xFFFFFFFFFFFFFFFF DUP2 GT ISZERO PUSH2 0x388 JUMPI PUSH2 0x387 PUSH2 0x136 JUMP JUMPDEST JUMPDEST PUSH2 0x392 DUP3 SLOAD PUSH2 0x190 JUMP JUMPDEST PUSH2 0x39D DUP3 DUP3 DUP6 PUSH2 0x2DD JUMP JUMPDEST PUSH0 PUSH1 0x20 SWAP1 POP PUSH1 0x1F DUP4 GT PUSH1 0x1 DUP2 EQ PUSH2 0x3CE JUMPI PUSH0 DUP5 ISZERO PUSH2 0x3BC JUMPI DUP3 DUP8 ADD MLOAD SWAP1 POP JUMPDEST PUSH2 0x3C6 DUP6 DUP3 PUSH2 0x34B JUMP JUMPDEST DUP7 SSTORE POP PUSH2 0x42D JUMP JUMPDEST PUSH1 0x1F NOT DUP5 AND PUSH2 0x3DC DUP7 PUSH2 0x1C0 JUMP JUMPDEST PUSH0 JUMPDEST DUP3 DUP2 LT ISZERO PUSH2 0x403 JUMPI DUP5 DUP10 ADD MLOAD DUP3 SSTORE PUSH1 0x1 DUP3 ADD SWAP2 POP PUSH1 0x20 DUP6 ADD SWAP5 POP PUSH1 0x20 DUP2 ADD SWAP1 POP PUSH2 0x3DE JUMP JUMPDEST DUP7 DUP4 LT ISZERO PUSH2 0x420 JUMPI DUP5 DUP10 ADD MLOAD PUSH2 0x41C PUSH1 0x1F DUP10 AND DUP3 PUSH2 0x32F JUMP JUMPDEST DUP4 SSTORE POP JUMPDEST PUSH1 0x1 PUSH1 0x2 DUP9 MUL ADD DUP9 SSTORE POP POP POP JUMPDEST POP POP POP POP POP POP JUMP JUMPDEST PUSH2 0x6AE DUP1 PUSH2 0x442 PUSH0 CODECOPY PUSH0 RETURN INVALID PUSH1 0x80 PUSH1 0x40 MSTORE CALLVALUE DUP1 ISZERO PUSH2 0xF JUMPI PUSH0 DUP1 REVERT JUMPDEST POP PUSH1 0x4 CALLDATASIZE LT PUSH2 0xCD JUMPI PUSH0 CALLDATALOAD PUSH1 0xE0 SHR DUP1 PUSH4 0x739FFD79 GT PUSH2 0x8A JUMPI DUP1 PUSH4 0x910654D3 GT PUSH2 0x64 JUMPI DUP1 PUSH4 0x910654D3 EQ PUSH2 0x1DF JUMPI DUP1 PUSH4 0x9C75ED51 EQ PUSH2 0x1FD JUMPI DUP1 PUSH4 0xA531F36A EQ PUSH2 0x21B JUMPI DUP1 PUSH4 0xE9E56344 EQ PUSH2 0x239 JUMPI PUSH2 0xCD JUMP JUMPDEST DUP1 PUSH4 0x739FFD79 EQ PUSH2 0x185 JUMPI DUP1 PUSH4 0x7C75023A EQ PUSH2 0x1A3 JUMPI DUP1 PUSH4 0x8052474D EQ PUSH2 0x1C1 JUMPI PUSH2 0xCD JUMP JUMPDEST DUP1 PUSH4 0xC3F6ACF EQ PUSH2 0xD1 JUMPI DUP1 PUSH4 0x15D4266C EQ PUSH2 0xEF JUMPI DUP1 PUSH4 0x262A9DFF EQ PUSH2 0x10D JUMPI DUP1 PUSH4 0x3B9EAC4B EQ PUSH2 0x12B JUMPI DUP1 PUSH4 0x69743312 EQ PUSH2 0x149 JUMPI DUP1 PUSH4 0x6B4C08CE EQ PUSH2 0x167 JUMPI JUMPDEST PUSH0 DUP1 REVERT JUMPDEST PUSH2 0xD9 PUSH2 0x257 JUMP JUMPDEST PUSH1 0x40 MLOAD PUSH2 0xE6 SWAP2 SWAP1 PUSH2 0x485 JUMP JUMPDEST PUSH1 0x40 MLOAD DUP1 SWAP2 SUB SWAP1 RETURN JUMPDEST PUSH2 0xF7 PUSH2 0x26A JUMP JUMPDEST PUSH1 0x40 MLOAD PUSH2 0x104 SWAP2 SWAP1 PUSH2 0x4B6 JUMP JUMPDEST PUSH1 0x40 MLOAD DUP1 SWAP2 SUB SWAP1 RETURN JUMPDEST PUSH2 0x115 PUSH2 0x270 JUMP JUMPDEST PUSH1 0x40 MLOAD PUSH2 0x122 SWAP2 SWAP1 PUSH2 0x4E9 JUMP JUMPDEST PUSH1 0x40 MLOAD DUP1 SWAP2 SUB SWAP1 RETURN JUMPDEST PUSH2 0x133 PUSH2 0x282 JUMP JUMPDEST PUSH1 0x40 MLOAD PUSH2 0x140 SWAP2 SWAP1 PUSH2 0x4B6 JUMP JUMPDEST PUSH1 0x40 MLOAD DUP1 SWAP2 SUB SWAP1 RETURN JUMPDEST PUSH2 0x151 PUSH2 0x288 JUMP JUMPDEST PUSH1 0x40 MLOAD PUSH2 0x15E SWAP2 SWAP1 PUSH2 0x51A JUMP JUMPDEST PUSH1 0x40 MLOAD DUP1 SWAP2 SUB SWAP1 RETURN JUMPDEST PUSH2 0x16F PUSH2 0x28E JUMP JUMPDEST PUSH1 0x40 MLOAD PUSH2 0x17C SWAP2 SWAP1 PUSH2 0x5A3 JUMP JUMPDEST PUSH1 0x40 MLOAD DUP1 SWAP2 SUB SWAP1 RETURN JUMPDEST PUSH2 0x18D PUSH2 0x31A JUMP JUMPDEST PUSH1 0x40 MLOAD PUSH2 0x19A SWAP2 SWAP1 PUSH2 0x5A3 JUMP JUMPDEST PUSH1 0x40 MLOAD DUP1 SWAP2 SUB SWAP1 RETURN JUMPDEST PUSH2 0x1AB PUSH2 0x3A6 JUMP JUMPDEST PUSH1 0x40 MLOAD PUSH2 0x1B8 SWAP2 SWAP1 PUSH2 0x51A JUMP JUMPDEST PUSH1 0x40 MLOAD DUP1 SWAP2 SUB SWAP1 RETURN JUMPDEST PUSH2 0x1C9 PUSH2 0x3AC JUMP JUMPDEST PUSH1 0x40 MLOAD PUSH2 0x1D6 SWAP2 SWAP1 PUSH2 0x4E9 JUMP JUMPDEST PUSH1 0x40 MLOAD DUP1 SWAP2 SUB SWAP1 RETURN JUMPDEST PUSH2 0x1E7 PUSH2 0x3BC JUMP JUMPDEST PUSH1 0x40 MLOAD PUSH2 0x1F4 SWAP2 SWAP1 PUSH2 0x51A JUMP JUMPDEST PUSH1 0x40 MLOAD DUP1 SWAP2 SUB SWAP1 RETURN JUMPDEST PUSH2 0x205 PUSH2 0x3C2 JUMP JUMPDEST PUSH1 0x40 MLOAD PUSH2 0x212 SWAP2 SWAP1 PUSH2 0x602 JUMP JUMPDEST PUSH1 0x40 MLOAD DUP1 SWAP2 SUB SWAP1 RETURN JUMPDEST PUSH2 0x223 PUSH2 0x3E7 JUMP JUMPDEST PUSH1 0x40 MLOAD PUSH2 0x230 SWAP2 SWAP1 PUSH2 0x4B6 JUMP JUMPDEST PUSH1 0x40 MLOAD DUP1 SWAP2 SUB SWAP1 RETURN JUMPDEST PUSH2 0x241 PUSH2 0x3ED JUMP JUMPDEST PUSH1 0x40 MLOAD PUSH2 0x24E SWAP2 SWAP1 PUSH2 0x602 JUMP JUMPDEST PUSH1 0x40 MLOAD DUP1 SWAP2 SUB SWAP1 RETURN JUMPDEST PUSH1 0x8 PUSH1 0x14 SWAP1 SLOAD SWAP1 PUSH2 0x100 EXP SWAP1 DIV PUSH1 0xFF AND DUP2 JUMP JUMPDEST PUSH1 0x2 SLOAD DUP2 JUMP JUMPDEST PUSH0 PUSH1 0x1 SWAP1 SLOAD SWAP1 PUSH2 0x100 EXP SWAP1 DIV PUSH1 0xFF AND DUP2 JUMP JUMPDEST PUSH1 0x1 SLOAD DUP2 JUMP JUMPDEST PUSH1 0x5 SLOAD DUP2 JUMP JUMPDEST PUSH1 0x9 DUP1 SLOAD PUSH2 0x29B SWAP1 PUSH2 0x648 JUMP JUMPDEST DUP1 PUSH1 0x1F ADD PUSH1 0x20 DUP1 SWAP2 DIV MUL PUSH1 0x20 ADD PUSH1 0x40 MLOAD SWAP1 DUP2 ADD PUSH1 0x40 MSTORE DUP1 SWAP3 SWAP2 SWAP1 DUP2 DUP2 MSTORE PUSH1 0x20 ADD DUP3 DUP1 SLOAD PUSH2 0x2C7 SWAP1 PUSH2 0x648 JUMP JUMPDEST DUP1 ISZERO PUSH2 0x312 JUMPI DUP1 PUSH1 0x1F LT PUSH2 0x2E9 JUMPI PUSH2 0x100 DUP1 DUP4 SLOAD DIV MUL DUP4 MSTORE SWAP2 PUSH1 0x20 ADD SWAP2 PUSH2 0x312 JUMP JUMPDEST DUP3 ADD SWAP2 SWAP1 PUSH0 MSTORE PUSH1 0x20 PUSH0 KECCAK256 SWAP1 JUMPDEST DUP2 SLOAD DUP2 MSTORE SWAP1 PUSH1 0x1 ADD SWAP1 PUSH1 0x20 ADD DUP1 DUP4 GT PUSH2 0x2F5 JUMPI DUP3 SWAP1 SUB PUSH1 0x1F AND DUP3 ADD SWAP2 JUMPDEST POP POP POP POP POP DUP2 JUMP JUMPDEST PUSH1 0xA DUP1 SLOAD PUSH2 0x327 SWAP1 PUSH2 0x648 JUMP JUMPDEST DUP1 PUSH1 0x1F ADD PUSH1 0x20 DUP1 SWAP2 DIV MUL PUSH1 0x20 ADD PUSH1 0x40 MLOAD SWAP1 DUP2 ADD PUSH1 0x40 MSTORE DUP1 SWAP3 SWAP2 SWAP1 DUP2 DUP2 MSTORE PUSH1 0x20 ADD DUP3 DUP1 SLOAD PUSH2 0x353 SWAP1 PUSH2 0x648 JUMP JUMPDEST DUP1 ISZERO PUSH2 0x39E JUMPI DUP1 PUSH1 0x1F LT PUSH2 0x375 JUMPI PUSH2 0x100 DUP1 DUP4 SLOAD DIV MUL DUP4 MSTORE SWAP2 PUSH1 0x20 ADD SWAP2 PUSH2 0x39E JUMP JUMPDEST DUP3 ADD SWAP2 SWAP1 PUSH0 MSTORE PUSH1 0x20 PUSH0 KECCAK256 SWAP1 JUMPDEST DUP2 SLOAD DUP2 MSTORE SWAP1 PUSH1 0x1 ADD SWAP1 PUSH1 0x20 ADD DUP1 DUP4 GT PUSH2 0x381 JUMPI DUP3 SWAP1 SUB PUSH1 0x1F AND DUP3 ADD SWAP2 JUMPDEST POP POP POP POP POP DUP2 JUMP JUMPDEST PUSH1 0x4 SLOAD DUP2 JUMP JUMPDEST PUSH0 DUP1 SLOAD SWAP1 PUSH2 0x100 EXP SWAP1 DIV PUSH1 0xFF AND DUP2 JUMP JUMPDEST PUSH1 0x6 SLOAD DUP2 JUMP JUMPDEST PUSH1 0x7 PUSH0 SWAP1 SLOAD SWAP1 PUSH2 0x100 EXP SWAP1 DIV PUSH20 0xFFFFFFFFFFFFFFFFFFFFFFFFFFFFFFFFFFFFFFFF AND DUP2 JUMP JUMPDEST PUSH1 0x3 SLOAD DUP2 JUMP JUMPDEST PUSH1 0x8 PUSH0 SWAP1 SLOAD SWAP1 PUSH2 0x100 EXP SWAP1 DIV PUSH20 0xFFFFFFFFFFFFFFFFFFFFFFFFFFFFFFFFFFFFFFFF AND DUP2 JUMP JUMPDEST PUSH32 0x4E487B7100000000000000000000000000000000000000000000000000000000 PUSH0 MSTORE PUSH1 0x21 PUSH1 0x4 MSTORE PUSH1 0x24 PUSH0 REVERT JUMPDEST PUSH1 0x3 DUP2 LT PUSH2 0x450 JUMPI PUSH2 0x44F PUSH2 0x412 JUMP JUMPDEST JUMPDEST POP JUMP JUMPDEST PUSH0 DUP2 SWAP1 POP PUSH2 0x460 DUP3 PUSH2 0x43F JUMP JUMPDEST SWAP2 SWAP1 POP JUMP JUMPDEST PUSH0 PUSH2 0x46F DUP3 PUSH2 0x453 JUMP JUMPDEST SWAP1 POP SWAP2 SWAP1 POP JUMP JUMPDEST PUSH2 0x47F DUP2 PUSH2 0x465 JUMP JUMPDEST DUP3 MSTORE POP POP JUMP JUMPDEST PUSH0 PUSH1 0x20 DUP3 ADD SWAP1 POP PUSH2 0x498 PUSH0 DUP4 ADD DUP5 PUSH2 0x476 JUMP JUMPDEST SWAP3 SWAP2 POP POP JUMP JUMPDEST PUSH0 DUP2 SWAP1 POP SWAP2 SWAP1 POP JUMP JUMPDEST PUSH2 0x4B0 DUP2 PUSH2 0x49E JUMP JUMPDEST DUP3 MSTORE POP POP JUMP JUMPDEST PUSH0 PUSH1 0x20 DUP3 ADD SWAP1 POP PUSH2 0x4C9 PUSH0 DUP4 ADD DUP5 PUSH2 0x4A7 JUMP JUMPDEST SWAP3 SWAP2 POP POP JUMP JUMPDEST PUSH0 DUP2 ISZERO ISZERO SWAP1 POP SWAP2 SWAP1 POP JUMP JUMPDEST PUSH2 0x4E3 DUP2 PUSH2 0x4CF JUMP JUMPDEST DUP3 MSTORE POP POP JUMP JUMPDEST PUSH0 PUSH1 0x20 DUP3 ADD SWAP1 POP PUSH2 0x4FC PUSH0 DUP4 ADD DUP5 PUSH2 0x4DA JUMP JUMPDEST SWAP3 SWAP2 POP POP JUMP JUMPDEST PUSH0 DUP2 SWAP1 POP SWAP2 SWAP1 POP JUMP JUMPDEST PUSH2 0x514 DUP2 PUSH2 0x502 JUMP JUMPDEST DUP3 MSTORE POP POP JUMP JUMPDEST PUSH0 PUSH1 0x20 DUP3 ADD SWAP1 POP PUSH2 0x52D PUSH0 DUP4 ADD DUP5 PUSH2 0x50B JUMP JUMPDEST SWAP3 SWAP2 POP POP JUMP JUMPDEST PUSH0 DUP2 MLOAD SWAP1 POP SWAP2 SWAP1 POP JUMP JUMPDEST PUSH0 DUP3 DUP3 MSTORE PUSH1 0x20 DUP3 ADD SWAP1 POP SWAP3 SWAP2 POP POP JUMP JUMPDEST DUP3 DUP2 DUP4 MCOPY PUSH0 DUP4 DUP4 ADD MSTORE POP POP POP JUMP JUMPDEST PUSH0 PUSH1 0x1F NOT PUSH1 0x1F DUP4 ADD AND SWAP1 POP SWAP2 SWAP1 POP JUMP JUMPDEST PUSH0 PUSH2 0x575 DUP3 PUSH2 0x533 JUMP JUMPDEST PUSH2 0x57F DUP2 DUP6 PUSH2 0x53D JUMP JUMPDEST SWAP4 POP PUSH2 0x58F DUP2 DUP6 PUSH1 0x20 DUP7 ADD PUSH2 0x54D JUMP JUMPDEST PUSH2 0x598 DUP2 PUSH2 0x55B JUMP JUMPDEST DUP5 ADD SWAP2 POP POP SWAP3 SWAP2 POP POP JUMP JUMPDEST PUSH0 PUSH1 0x20 DUP3 ADD SWAP1 POP DUP2 DUP2 SUB PUSH0 DUP4 ADD MSTORE PUSH2 0x5BB DUP2 DUP5 PUSH2 0x56B JUMP JUMPDEST SWAP1 POP SWAP3 SWAP2 POP POP JUMP JUMPDEST PUSH0 PUSH20 0xFFFFFFFFFFFFFFFFFFFFFFFFFFFFFFFFFFFFFFFF DUP3 AND SWAP1 POP SWAP2 SWAP1 POP JUMP JUMPDEST PUSH0 PUSH2 0x5EC DUP3 PUSH2 0x5C3 JUMP JUMPDEST SWAP1 POP SWAP2 SWAP1 POP JUMP JUMPDEST PUSH2 0x5FC DUP2 PUSH2 0x5E2 JUMP JUMPDEST DUP3 MSTORE POP POP JUMP JUMPDEST PUSH0 PUSH1 0x20 DUP3 ADD SWAP1 POP PUSH2 0x615 PUSH0 DUP4 ADD DUP5 PUSH2 0x5F3 JUMP JUMPDEST SWAP3 SWAP2 POP POP JUMP JUMPDEST PUSH32 0x4E487B7100000000000000000000000000000000000000000000000000000000 PUSH0 MSTORE PUSH1 0x22 PUSH1 0x4 MSTORE PUSH1 0x24 PUSH0 REVERT JUMPDEST PUSH0 PUSH1 0x2 DUP3 DIV SWAP1 POP PUSH1 0x1 DUP3 AND DUP1 PUSH2 0x65F JUMPI PUSH1 0x7F DUP3 AND SWAP2 POP JUMPDEST PUSH1 0x20 DUP3 LT DUP2 SUB PUSH2 0x672 JUMPI PUSH2 0x671 PUSH2 0x61B JUMP JUMPDEST JUMPDEST POP SWAP2 SWAP1 POP JUMP INVALID LOG2 PUSH5 0x6970667358 0x22 SLT KECCAK256 0xF8 0x21 0xAE PUSH15 0x4E66A1994D3FC3EEA8C2DE9183DA1 GASLIMIT TSTORE 0xA8 CREATE BLOBHASH AND PREVRANDAO 0xDD 0xE5 0xCD DUP6 LOG2 0xCA PUSH5 0x736F6C6343 STOP ADDMOD NOT STOP CALLER "
				},
				"gasEstimates": {
					"creation": {
						"codeDepositCost": "342000",
						"executionCost": "infinite",
						"totalCost": "infinite"
					},
					"external": {
						"Name()": "2530",
						"addere()": "2596",
						"age()": "2561",
						"bytes1v()": "infinite",
						"bytes1v2()": "infinite",
						"currentState()": "2606",
						"hbbbb()": "2552",
						"num1()": "2492",
						"num2()": "2448",
						"num3()": "2491",
						"num4()": "2470",
						"num5()": "2514",
						"num6()": "2447"
					}
				},
				"methodIdentifiers": {
					"Name()": "8052474d",
					"addere()": "e9e56344",
					"age()": "262a9dff",
					"bytes1v()": "6b4c08ce",
					"bytes1v2()": "739ffd79",
					"currentState()": "0c3f6acf",
					"hbbbb()": "9c75ed51",
					"num1()": "3b9eac4b",
					"num2()": "15d4266c",
					"num3()": "a531f36a",
					"num4()": "7c75023a",
					"num5()": "69743312",
					"num6()": "910654d3"
				}
			},
			"storageLayout": {
				"storage": [
					{
						"astId": 3,
						"contract": "contracts/hello.sol:MyFirstContract",
						"label": "Name",
						"offset": 0,
						"slot": "0",
						"type": "t_bool"
					},
					{
						"astId": 7,
						"contract": "contracts/hello.sol:MyFirstContract",
						"label": "age",
						"offset": 1,
						"slot": "0",
						"type": "t_bool"
					},
					{
						"astId": 9,
						"contract": "contracts/hello.sol:MyFirstContract",
						"label": "num1",
						"offset": 0,
						"slot": "1",
						"type": "t_uint256"
					},
					{
						"astId": 12,
						"contract": "contracts/hello.sol:MyFirstContract",
						"label": "num2",
						"offset": 0,
						"slot": "2",
						"type": "t_uint256"
					},
					{
						"astId": 14,
						"contract": "contracts/hello.sol:MyFirstContract",
						"label": "num3",
						"offset": 0,
						"slot": "3",
						"type": "t_uint256"
					},
					{
						"astId": 16,
						"contract": "contracts/hello.sol:MyFirstContract",
						"label": "num4",
						"offset": 0,
						"slot": "4",
						"type": "t_int256"
					},
					{
						"astId": 19,
						"contract": "contracts/hello.sol:MyFirstContract",
						"label": "num5",
						"offset": 0,
						"slot": "5",
						"type": "t_int256"
					},
					{
						"astId": 21,
						"contract": "contracts/hello.sol:MyFirstContract",
						"label": "num6",
						"offset": 0,
						"slot": "6",
						"type": "t_int256"
					},
					{
						"astId": 23,
						"contract": "contracts/hello.sol:MyFirstContract",
						"label": "hbbbb",
						"offset": 0,
						"slot": "7",
						"type": "t_address"
					},
					{
						"astId": 26,
						"contract": "contracts/hello.sol:MyFirstContract",
						"label": "addere",
						"offset": 0,
						"slot": "8",
						"type": "t_address"
					},
					{
						"astId": 35,
						"contract": "contracts/hello.sol:MyFirstContract",
						"label": "currentState",
						"offset": 20,
						"slot": "8",
						"type": "t_enum(State)30"
					},
					{
						"astId": 37,
						"contract": "contracts/hello.sol:MyFirstContract",
						"label": "bytes1v",
						"offset": 0,
						"slot": "9",
						"type": "t_bytes_storage"
					},
					{
						"astId": 40,
						"contract": "contracts/hello.sol:MyFirstContract",
						"label": "bytes1v2",
						"offset": 0,
						"slot": "10",
						"type": "t_bytes_storage"
					}
				],
				"types": {
					"t_address": {
						"encoding": "inplace",
						"label": "address",
						"numberOfBytes": "20"
					},
					"t_bool": {
						"encoding": "inplace",
						"label": "bool",
						"numberOfBytes": "1"
					},
					"t_bytes_storage": {
						"encoding": "bytes",
						"label": "bytes",
						"numberOfBytes": "32"
					},
					"t_enum(State)30": {
						"encoding": "inplace",
						"label": "enum MyFirstContract.State",
						"numberOfBytes": "1"
					},
					"t_int256": {
						"encoding": "inplace",
						"label": "int256",
						"numberOfBytes": "32"
					},
					"t_uint256": {
						"encoding": "inplace",
						"label": "uint256",
						"numberOfBytes": "32"
					}
				}
			},
			"userdoc": {
				"kind": "user",
				"methods": {
					"age()": {
						"notice": "defauly it can consider as the False "
					}
				},
				"version": 1
			}
		}
	}
}